:100000000C94AB000C94D3000C94D3000C94D3004C
:100010000C94D3000C94D3000C94D3000C94D30014
:100020000C94D3000C94D3000C94D3000C94D30004
:100030000C94D3000C94D3000C94D3000C94D300F4
:100040000C9487050C94D3000C9455050C942F0543
:100050000C94D3000C94D3000C94D3000C94D300D4
:100060000C94D3000C94D3005A737574457468656E
:10007000726E65745544503A3A626567696E5061B4
:10008000636B657428636F6E73742063686172209C
:100090002A686F73742C2075696E7431365F742012
:1000A000706F7274293B206973206E6F74207375B2
:1000B00070706F727465642120536F7272792100C1
:1000C0005468652070726F6772616D2077696C6C1F
:1000D00020636F756E74204750494F20696E7075AC
:1000E00074732066726F6D2070696E7320443620C1
:1000F000616E64204437206F662073656E73696E8D
:10010000672070726F636573736573002074696D27
:100110006573000909312D3E303A20002074696D65
:100120006573000909302D3E313A200044373A000A
:100130002074696D6573000909312D3E303A200045
:100140002074696D6573000909302D3E313A200035
:1001500044363A00D10511241FBECFEFD8E0DEBFF0
:10016000CDBF23E0AEE4B1E001C01D92AF39B207CC
:10017000E1F711E0A0E0B1E0E4EFF2E102C00590A8
:100180000D92AE34B107D9F710E0CBEAD0E004C04D
:100190002197FE010E94A708CA3AD107C9F70E9419
:1001A00058060C9478090C9400000895EF92FF9281
:1001B0000F931F93CF93DF938C017B01C0E0D0E0BE
:1001C000F701EC0FFD1F6491662361F0D801ED91FA
:1001D000FC910190F081E02DC8010995892B11F067
:1001E0002196EECFCE01DF91CF911F910F91FF901D
:1001F000EF900895CF92DF92EF92FF920F931F93AB
:10020000CF93DF936C017A018B01C0E0D0E0CE1573
:10021000DF0589F0D8016D918D01D601ED91FC913A
:100220000190F081E02DC6010995892B11F47E0122
:1002300002C02196ECCFC701DF91CF911F910F91A2
:10024000FF90EF90DF90CF900895FC01918D828D0B
:10025000981761F0828DDF01A80FB11D5D968C911A
:10026000928D9F5F9F73928F90E008958FEF9FEF25
:100270000895FC01918D828D981731F0828DE80FE1
:10028000F11D858D90E008958FEF9FEF0895FC019B
:10029000918D228D892F90E0805C9F4F821B910968
:1002A0008F739927089585EB92E00E94470121E022
:1002B000892B09F420E0822F0895FC01848DDF0151
:1002C000A80FB11DA35ABF4F2C91848D90E00196C9
:1002D0008F739927848FA689B7892C93A089B189B8
:1002E0008C9180648C93938D848D981306C00288C2
:1002F000F389E02D80818F7D80830895EF92FF92B6
:100300000F931F93CF93DF93EC0181E0888F9B8D38
:100310008C8D981305C0E889F989808185FD24C0FA
:10032000F62E0B8D10E00F5F1F4F0F731127E02E7D
:100330008C8DE8120CC00FB607FCFACFE889F9895A
:10034000808185FFF5CFCE010E945D01F1CF8B8DBD
:10035000FE01E80FF11DE35AFF4FF0820B8FEA898F
:10036000FB898081806207C0EE89FF896083E8890C
:10037000F98980818064808381E090E0DF91CF9172
:100380001F910F91FF90EF900895CF93DF93EC01B1
:10039000888D8823C9F0EA89FB89808185FD05C0A5
:1003A000A889B9898C9186FD0FC00FB607FCF5CFDF
:1003B000808185FFF2CFA889B9898C9185FFEDCF27
:1003C000CE010E945D01E7CFDF91CF91089580E0DB
:1003D00090E0892B29F00E94530181110C940000B8
:1003E00008953FB7F8948091530190915401A091E2
:1003F0005501B091560126B5A89B05C02F3F19F0B5
:100400000196A11DB11D3FBFBA2FA92F982F882794
:10041000820F911DA11DB11DBC01CD0142E0660FEF
:10042000771F881F991F4A95D1F7089581E0089595
:1004300087E08CBF95EE9BBF1ABE8CBF86EE8BBF4C
:100440001ABE089580E090E0089597E09CBF87EE83
:100450008BBF8AB79CBF28EE2BBF2AB730E0382B62
:100460009CBF85EE8BBFEAB79CBF86EE8BBF9AB769
:10047000892F90E09E2B821B930B8417950708F021
:10048000CA01FB01A9014751584F680F791FE617B0
:10049000F70739F05CBF4BBFAAB7A1934F5F5F4F1F
:1004A000F6CF280F391F47E04CBF57EE5BBF3ABF6E
:1004B0004CBF38EE3BBF2ABF0895CF93DF931F9206
:1004C000CDB7DEB7DC01ED91FC91008CF18DE02D14
:1004D00041E050E0BE016F5F7F4F09951816190685
:1004E0001CF4898190E002C08FEF9FEF0F90DF91A5
:1004F000CF910895FC0187E08CBF95EE9BBF3AB782
:100500008CBF96EE9BBF9AB78CBF27EE2BBF6AB706
:100510008CBF88EE8BBF2AB71CBE80E18BBF8AB729
:100520001CBE4FE04BBF4AB71CBE5EE05BBF5AB774
:100530001CBE7DE07BBF7AB7708B518B428B838B67
:100540001CBE81E18BBF8AB71CBE42E14BBF4AB7DC
:1005500050E0582B558B448B892F90E0932B30E043
:10056000362B821B930B08951CBE83E18BBF2AB7E9
:100570001CBE84E18BBF8AB790E0922BFB019C01EB
:100580002B5E3F4F640F751FE617F70739F0A191F7
:100590003CBF2BBFAABF2F5F3F4FF6CF480F591F5D
:1005A0001CBE83E18BBF5ABF1CBE84E18BBF4ABF18
:1005B00080E090E00895CF93DF931F92CDB7DEB730
:1005C0006983DC01ED91FC910280F381E02D41E033
:1005D00050E0BE016F5F7F4F09950F90DF91CF9183
:1005E00008951CBE1BBE8FEF8ABF1CBE1BBE82E0DF
:1005F0008ABF80E090E00895FB01328123819481DD
:1006000085811CBE1BBE61E06ABF1CBE6DE06BBF76
:100610003ABF1CBE3EE03BBF2ABF1CBE2FE02BBF33
:100620009ABF1CBE90E19BBF8ABF1CBE81E18BBFFD
:100630005ABF1CBE82E18BBF4ABF81E090E00895A3
:10064000DC01ED91FC910688F789E02D09941CBE30
:100650008BE08BBF7ABF1CBE8CE08BBF6ABF1CBE19
:100660001BBE83E08ABF81E00895FC0184899589DF
:1006700008952EE331E0FC0131832083FB014089A2
:10068000518962897389FC01428353836483758332
:100690000895DC01ED91FC91008CF18DE02D099421
:1006A000CF93DF93CDB7DEB7CC51D1400FB6F894DE
:1006B000DEBF0FBECDBF69E578E088E793E00E941A
:1006C00027038EE391E09A8389838091950390912B
:1006D0009603A0919703B09198038B839C83AD837D
:1006E000BE8349E558E0BE016F5F7F4F88E793E026
:1006F0000E94FC0283E0CF56DF4F8883C159D0406F
:100700000E94070920E030E040E051E00E94150916
:10071000CE56DF4F688379838A83C259D04084E400
:10072000E1E7F2E0A1E9B0E0AC0FBD1F1496019043
:100730000D928A95E1F748E450E0BE016F567F4F75
:1007400088E793E00E94B40288E793E00E94F102F8
:1007500069E578E088E793E00E94270388E793E063
:100760000E947A02892BD1F348E450E0BE01675B16
:100770007F4F88E793E00E94250284E4E9E4F0E0FB
:10078000EC0FFD1F3496A1E7B2E001900D928A951F
:10079000E1F769E578E088E793E00E9427038EE3BC
:1007A00091E09A8389838091950390919603A0911B
:1007B0009703B09198038B839C83AD83BE8349E5F7
:1007C00058E0BE016F5F7F4F88E793E00E94FC0214
:1007D00061E772E0CE0187529F4F0E94B208C75076
:1007E000DF4F188219821A821B82C95FD0408BE0CA
:1007F00089830E94070920E030E040E051E00E9438
:1008000015096A837B838C8384E4FE01E752FF4FE2
:10081000DE01159601900D928A95E1F748E450E0CB
:10082000BE016F5F7F4F88E793E00E94B40288E7C4
:1008300093E00E94F1022A968FAD2A97881F88279D
:10084000881F91E08927C45EDE4F0FB6F894DEBFA3
:100850000FBECDBFDF91CF9108950E94AD08611505
:10086000710579F0FB0101900020E9F73197AF01A4
:10087000461B570BDC01ED91FC910280F381E02DCA
:10088000099480E090E008954F925F926F927F927A
:10089000EF92FF920F931F93CF93DF93CDB7DEB705
:1008A000A1970FB6F894DEBF0FBECDBF7C01FA0151
:1008B000CB0119A2223008F42AE08E010F5D1F4FF0
:1008C000422E512C612C712CBF01A30192010E9478
:1008D0004709F901CA01015011096A3014F4605D39
:1008E00001C0695CD8016C93232B242B252B61F765
:1008F000B801C7010E942F04A1960FB6F894DEBF7D
:100900000FBECDBFDF91CF911F910F91FF90EF9060
:100910007F906F905F904F900895CF92DF92EF920B
:10092000FF92CF93DF936C01990FEE08FF08F7FE5B
:1009300021C0E091B502F091B6020190F081E02D66
:100940006DE285EB92E00995EC0144275527BA0149
:100950004C195D096E097F092AE085EB92E00E943F
:1009600044048C0F9D1FDF91CF91FF90EF90DF909B
:10097000CF9008952AE0B701A60185EB92E0DF91C0
:10098000CF91FF90EF90DF90CF900C9444048F9222
:100990009F92AF92BF92CF92DF92EF92FF920F930E
:1009A0001F93CF93DF937C01EB016C0182E0C80EB3
:1009B000D11C4701E5E08E0E911C00E010E0F6012D
:1009C00041916F0150E060E070E02AE0CE010E94AA
:1009D00044045C01E881F9810190F081E02D6EE230
:1009E000CE0109958A0D9B1D080F191FC814D90443
:1009F00031F7F701458150E060E070E02AE0CE0178
:100A00000E944404800F911FDF91CF911F910F919D
:100A1000FF90EF90DF90CF90BF90AF909F908F901E
:100A200008950F931F93CF93DF93EC010E94D6009C
:100A30008C0160E471E0CE010E942F04800F911FB1
:100A4000DF91CF911F910F91089568E670E085EBDB
:100A500092E00E941105989580E090E008951F9221
:100A60000F920FB60F9211242F933F934F935F93E2
:100A70006F937F938F939F93AF93BF93EF93FF9366
:100A800085EB92E00E945D01FF91EF91BF91AF91E4
:100A90009F918F917F916F915F914F913F912F9196
:100AA0000F900FBE0F901F9018951F920F920FB6C8
:100AB0000F9211242F938F939F93EF93FF93E091C5
:100AC000C502F091C6028081E091CB02F091CC0288
:100AD00082FD12C090818091CE028F5F8F73209132
:100AE000CF02821751F0E091CE02F0E0EB54FD4FBF
:100AF000958F8093CE0201C08081FF91EF919F91ED
:100B00008F912F910F900FBE0F901F9018951F92ED
:100B10000F920FB60F9211242F933F938F939F93B1
:100B2000AF93BF9380914F0190915001A0915101DB
:100B3000B091520130914E0123E0230F2D3720F464
:100B40000196A11DB11D05C026E8230F0296A11D27
:100B5000B11D20934E0180934F0190935001A093BB
:100B60005101B09352018091530190915401A09191
:100B70005501B09156010196A11DB11D80935301FD
:100B800090935401A0935501B0935601BF91AF913A
:100B90009F918F913F912F910F900FBE0F901F90BB
:100BA0001895E5EBF2E01382128248EE53E060E024
:100BB00070E0448355836683778388E091E0918376
:100BC000808385EC90E09587848784EC90E097871C
:100BD000868780EC90E0918B808B81EC90E0938B0A
:100BE000828B82EC90E0958B848B86EC90E0978BE7
:100BF000868B118E128E138E148EE2E5F3E08EE357
:100C000091E0918380831282138214821582E8E539
:100C1000F3E0918380831282138214821582E6E6C8
:100C2000F3E0918380831282138214821582EEE5B1
:100C3000F3E0918380831282138214821582ECE6A2
:100C4000F3E0918380831282138214821582E2E79B
:100C5000F3E0918380831282138214821582E9E982
:100C6000F3E0918380831282138214821582E3E978
:100C7000F3E09183808320EC228328EA238328E316
:100C8000248325E62583E8E7F3E013821282448378
:100C900055836683778328E131E03183208397870A
:100CA0008687108A118A128A138A84E0808F0895B9
:100CB000789484B5826084BD84B5816084BD85B537
:100CC000826085BD85B5816085BD80916E00816043
:100CD00080936E00109281008091810082608093E9
:100CE00081008091810081608093810080918000EB
:100CF0008160809380008091B10084608093B10016
:100D00008091B00081608093B00080917A0084600F
:100D100080937A0080917A00826080937A0080913B
:100D20007A00816080937A0080917A008068809355
:100D30007A001092C100E091C502F091C60282E0F3
:100D40008083E091C102F091C2021082E091C3025F
:100D5000F091C40280E180831092CD02E091C9023B
:100D6000F091CA0286E08083E091C702F091C80248
:100D7000808180618083E091C702F091C802808108
:100D800088608083E091C702F091C802808180680A
:100D90008083E091C702F091C80280818F7D8083BB
:100DA00046B767B728B739B7862F90E0A0E0B0E024
:100DB000DC0199278827B42B832BBC01CD01722B32
:100DC000611571058105910511F00E940C0988E0FB
:100DD0008093600380936103809362038093630335
:100DE0001092700210926F0210922402109223024D
:100DF00010922602109225021092280210922702C9
:100E000010922A021092290260EC70E085EB92E0C9
:100E10000E94110563E471E08BE292E00E94B20847
:100E200092E0C92ED12CE12CF12CC0924B02D09231
:100E30004C02E0924D02F0924E0280914F02807F70
:100E4000836080934F0226E0822E912CA12CB12C3E
:100E50008092530290925402A0925502B092560290
:100E600080915702807F82608093570268E471E02E
:100E70008FED91E00E94B208C092FF01D092000273
:100E8000E0920102F092020280910302807F83606F
:100E9000809303028092070290920802A0920902B6
:100EA000B0920A0280910B02807F826080930B02D5
:100EB00063E471E08BE991E00E94B208C092BB014B
:100EC000D092BC01E092BD01F092BE018091BF01C1
:100ED000807F83608093BF0137E0832E912CA12C0B
:100EE000B12C8092C3019092C401A092C501B0922E
:100EF000C6018091C701807F82608093C70168E44A
:100F000071E087E591E00E94B208C0927701D0922B
:100F10007801E0927901F0927A0180917B01807FE3
:100F2000836080937B0180927F0190928001A092E8
:100F30008101B092820180918301807F82608093E1
:100F40008301C4E480916F029091700204970CF4C5
:100F500058C060E571E085EB92E00E94110567E4FE
:100F600071E085EB92E00E94D6008091230290917F
:100F700024020E948D0460E471E085EB92E00E94FF
:100F8000110567E371E085EB92E00E94D600809145
:100F90002502909126020E948D0460E371E085EBAA
:100FA00092E00E9411056CE271E085EB92E00E94F4
:100FB000110563E271E085EB92E00E94D60080911A
:100FC0002702909128020E948D046CE171E085EB6C
:100FD00092E00E94110563E171E085EB92E00E94CE
:100FE000D6008091290290912A020E948D046CE023
:100FF00071E085EB92E00E94110510927002109250
:101000006F02EBE2F2E0A1E7B2E08C2F01900D92CB
:101010008A95E1F70E945003882391F08091230282
:101020009091240201969093240280932302809150
:101030006F029091700201969093700280936F02FC
:10104000EFEDF1E0A1E7B2E08C2F01900D928A95CF
:10105000E1F70E945003882391F08091250290913E
:1010600026020196909326028093250280916F02BA
:101070009091700201969093700280936F02EBE959
:10108000F1E0A1E7B2E08C2F01900D928A95E1F793
:101090000E945003882391F08091270290912802AA
:1010A0000196909328028093270280916F0290917D
:1010B000700201969093700280936F02E7E5F1E071
:1010C000A1E7B2E08C2F01900D928A95E1F70E9482
:1010D0005003882391F08091290290912A02019671
:1010E00090932A028093290280916F02909170025E
:1010F00001969093700280936F020E94F1014B0160
:101100005C0184EFC82EDD24D394E12CF12C0E94E5
:10111000F101DC01CB0188199909AA09BB09883EB4
:101120009340A105B10558F021E0C21AD108E108A9
:10113000F10888EE880E83E0981EA11CB11CC11432
:10114000D104E104F10419F70E94E701FBCEEE0F90
:10115000FF1F0590F491E02D099481E090E0F89450
:101160000C947809FB01DC0101900D920020E1F75D
:1011700008958F929F92AF92BF92CF92DF92EF929B
:10118000FF92CF93DF93EC01688179818A819B8103
:10119000611571058105910521F464E279ED8BE516
:1011A00097E02DE133EF41E050E00E94150949013D
:1011B0005A019B01AC01A7EAB1E40E9434096B011A
:1011C0007C01ACEEB4EFA50194010E944209DC0160
:1011D000CB018C0D9D1DAE1DBF1DB7FF03C0019738
:1011E000A109B04888839983AA83BB83BC01CD0140
:1011F0009F77DF91CF91FF90EF90DF90CF90BF90DE
:10120000AF909F908F9008950E94B908089580E054
:1012100091E00E94B9080895609300017093010164
:1012200080930201909303010895052E97FB1EF40D
:1012300000940E942C0957FD07D00E94470907FC23
:1012400003D04EF40C942C0950954095309521957F
:101250003F4F4F4F5F4F08959095809570956195E2
:101260007F4F8F4F9F4F08950E946909A59F900D52
:10127000B49F900DA49F800D911D11240895B7FF78
:101280000C9434090E943409821B930B0895A1E247
:101290001A2EAA1BBB1BFD010DC0AA1FBB1FEE1FF0
:1012A000FF1FA217B307E407F50720F0A21BB30B3B
:1012B000E40BF50B661F771F881F991F1A9469F7B7
:1012C00060957095809590959B01AC01BD01CF0113
:1012D0000895A29FB001B39FC001A39F700D811D0F
:1012E0001124911DB29F700D811D1124911D08952F
:0412F000F894FFCFA0
:1012F40001000000000000007E01FA004701250102
:101304003901C50100000000DB02B40220035D02C4
:10131400220218022703D500FC022505F1027A02F5
:101324002502490339033503160200000000C704EF
:0E1334000D0A00302D3E3100312D3E300000FC
:00000001FF
