:100000000C94B7000C94DF000C94DF000C94DF001C
:100010000C94DF000C94DF000C94DF000C94DF00E4
:100020000C94DF000C94DF000C94DF000C94DF00D4
:100030000C94DF000C94DF000C94DF000C94DF00C4
:100040000C94CC040C94DF000C949A040C9474046B
:100050000C94DF000C94DF000C94DF000C94DF00A4
:100060000C94DF000C94DF005A7375744574686556
:10007000726E65745544503A3A626567696E5061B4
:10008000636B657428636F6E73742063686172209C
:100090002A686F73742C2075696E7431365F742012
:1000A000706F7274293B206973206E6F74207375B2
:1000B00070706F727465642120536F7272792100C1
:1000C00000000000250028002B0000000000240094
:1000D00027002A00040404040404040402020202A7
:1000E00002020303030303030102040810204080FB
:1000F0000102040810200102040810205468652041
:1001000073656E736F722077696C6C2073656E73A4
:10011000652070696E20443600207D00292C200067
:1001200028666C6F61742000292C200028696E7489
:1001300020003A2000602C2073697A653D002C2055
:100140006000292C206E756D3D002C20666C3D28CA
:10015000007B2072743D005B4F55545D2053656EEB
:1001600074207061636B65743A200000AD0811243F
:100170001FBECFEFD8E0DEBFCDBF22E0AEEAB1E0D8
:1001800001C01D92A33AB207E1F711E0A0E0B1E08F
:10019000E2EAF7E102C005900D92AE3AB107D9F755
:1001A00010E0C7EBD0E004C02197FE010E943409A3
:1001B000C63BD107C9F70E9416050C94CF0B0C94CF
:1001C00000000895DC01ED91FC910190F081E02D9B
:1001D0000994EF92FF920F931F93CF93DF938C01BB
:1001E0007B01C0E0D0E0F701EC0FFD1F64916623B6
:1001F00061F0D801ED91FC910190F081E02DC801F2
:100200000995892B11F02196EECFCE01DF91CF9188
:100210001F910F91FF90EF900895CF92DF92EF9290
:10022000FF920F931F93CF93DF936C017A018B01A1
:10023000C0E0D0E0CE15DF0589F0D8016D918D01C9
:10024000D601ED91FC910190F081E02DC601099558
:10025000892B11F47E0102C02196ECCFC701DF91FA
:10026000CF911F910F91FF90EF90DF90CF90089565
:10027000FC01918D828D981761F0828DDF01A80FAE
:10028000B11D5D968C91928D9F5F9F73928F90E0D0
:1002900008958FEF9FEF0895FC01918D828D98173F
:1002A00031F0828DE80FF11D858D90E008958FEF7C
:1002B0009FEF0895FC01918D228D892F90E0805C45
:1002C0009F4F821B91098F739927089589EB91E0C5
:1002D0000E945A0121E0892B09F420E0822F089521
:1002E000FC01848DDF01A80FB11DA35ABF4F2C91D3
:1002F000848D90E001968F739927848FA689B789A2
:100300002C93A089B1898C9180648C93938D848D7A
:10031000981306C00288F389E02D80818F7D808349
:100320000895EF92FF920F931F93CF93DF93EC0109
:1003300081E0888F9B8D8C8D981305C0E889F989A1
:10034000808185FD24C0F62E0B8D10E00F5F1F4FBE
:100350000F731127E02E8C8DE8120CC00FB607FC2E
:10036000FACFE889F989808185FFF5CFCE010E9417
:100370007001F1CF8B8DFE01E80FF11DE35AFF4FA5
:10038000F0820B8FEA89FB898081806207C0EE8949
:10039000FF896083E889F98980818064808381E0B6
:1003A00090E0DF91CF911F910F91FF90EF90089512
:1003B000CF93DF93EC01888D8823C9F0EA89FB890C
:1003C000808185FD05C0A889B9898C9186FD0FC003
:1003D0000FB607FCF5CF808185FFF2CFA889B989D8
:1003E0008C9185FFEDCFCE010E947001E7CFDF91A8
:1003F000CF91089580E090E0892B29F00E9466015A
:1004000081110C9400000895CF93DF9390E0FC01DC
:10041000E851FF4F2491FC01EC52FF4F8491882357
:1004200061F190E0880F991FFC01E653FF4FC591E1
:10043000D491FC01E054FF4FA591B491611109C022
:100440009FB7F8948881209582238883EC912E238E
:100450000BC0623061F49FB7F8943881822F809589
:1004600083238883EC912E2B2C939FBF06C08FB7DC
:10047000F894E8812E2B28838FBFDF91CF910895C8
:100480003FB7F8948091B3019091B401A091B50168
:10049000B091B60126B5A89B05C02F3F19F0019673
:1004A000A11DB11D3FBFBA2FA92F982F8827820FFA
:1004B000911DA11DB11DBC01CD0142E0660F771F4A
:1004C000881F991F4A95D1F7089546B767B728B78F
:1004D00039B7862F90E0A0E0B0E0DC0199278827AB
:1004E000B42B832BBC01CD01722B089581E00895BC
:1004F00087E08CBF95EE9BBF1ABE8CBF86EE8BBF8C
:100500001ABE089580E090E0089597E09CBF87EEC2
:100510008BBF8AB79CBF28EE2BBF2AB730E0382BA1
:100520009CBF85EE8BBFEAB79CBF86EE8BBF9AB7A8
:10053000892F90E09E2B821B930B8417950708F060
:10054000CA01FB01A9014751584F680F791FE617EF
:10055000F70739F05CBF4BBFAAB7A1934F5F5F4F5E
:10056000F6CF280F391F47E04CBF57EE5BBF3ABFAD
:100570004CBF38EE3BBF2ABF0895CF93DF931F9245
:10058000CDB7DEB7DC01ED91FC91008CF18DE02D53
:1005900041E050E0BE016F5F7F4F099518161906C4
:1005A0001CF4898190E002C08FEF9FEF0F90DF91E4
:1005B000CF910895FC0187E08CBF95EE9BBF3AB7C1
:1005C0008CBF96EE9BBF9AB78CBF27EE2BBF6AB746
:1005D0008CBF88EE8BBF2AB71CBE80E18BBF8AB769
:1005E0001CBE4FE04BBF4AB71CBE5EE05BBF5AB7B4
:1005F0001CBE7DE07BBF7AB7708B518B428B838BA7
:100600001CBE81E18BBF8AB71CBE42E14BBF4AB71B
:1006100050E0582B558B448B892F90E0932B30E082
:10062000362B821B930B08951CBE83E18BBF2AB728
:100630001CBE84E18BBF8AB790E0922BFB019C012A
:100640002B5E3F4F640F751FE617F70739F0A19136
:100650003CBF2BBFAABF2F5F3F4FF6CF480F591F9C
:100660001CBE83E18BBF5ABF1CBE84E18BBF4ABF57
:1006700080E090E00895CF93DF931F92CDB7DEB76F
:100680006983DC01ED91FC910280F381E02D41E072
:1006900050E0BE016F5F7F4F09950F90DF91CF91C2
:1006A00008951CBE1BBE8FEF8ABF1CBE1BBE82E01E
:1006B0008ABF80E090E00895FB013281238194811C
:1006C00085811CBE1BBE61E06ABF1CBE6DE06BBFB6
:1006D0003ABF1CBE3EE03BBF2ABF1CBE2FE02BBF73
:1006E0009ABF1CBE90E19BBF8ABF1CBE81E18BBF3D
:1006F0005ABF1CBE82E18BBF4ABF81E090E00895E3
:10070000DC01ED91FC910688F789E02D09941CBE6F
:100710008BE08BBF7ABF1CBE8CE08BBF6ABF1CBE58
:100720001BBE83E08ABF81E00895FC01848995891E
:1007300008952AE731E0FC0131832083FB014089E1
:10074000518962897389FC01428353836483758371
:100750000895DC01ED91FC91008CF18DE02D099460
:100760000E94040B6115710579F0FB0101900020D6
:10077000E9F73197AF01461B570BDC01ED91FC9176
:100780000280F381E02D099480E090E008954F927B
:100790005F926F927F92EF92FF920F931F93CF938E
:1007A000DF93CDB7DEB7A1970FB6F894DEBF0FBECB
:1007B000CDBF7C01FA01CB0119A2223008F42AE056
:1007C0008E010F5D1F4F422E512C612C712CBF01E9
:1007D000A30192010E949E0BF901CA010150110967
:1007E0006A3014F4605D01C0695CD8016C93232BFE
:1007F000242B252B61F7B801C7010E94B203A196F3
:100800000FB6F894DEBF0FBECDBFDF91CF911F9121
:100810000F91FF90EF907F906F905F904F900895B1
:100820008F929F92AF92BF92CF92DF92EF92FF9200
:100830000F931F93CF93DF937C018B016C0182E0B8
:10084000C80ED11C4701E5E08E0E911CC0E0D0E03F
:10085000F60141916F0150E060E070E02AE0C801CC
:100860000E94C7035C016EE2C8010E94E2008A0D8B
:100870009B1DC80FD91FC814D90451F7F701458132
:1008800050E060E070E02AE0C8010E94C7038C0FCE
:100890009D1FDF91CF911F910F91FF90EF90DF90FF
:1008A000CF90BF90AF909F908F9008950F931F931C
:1008B000CF93DF93EC010E94E9008C0162E871E0C4
:1008C000CE010E94B203800F911FDF91CF911F9143
:1008D0000F91089568E670E089EB91E00E9456045C
:1008E000989580E090E008951F920F920FB60F92B6
:1008F00011242F933F934F935F936F937F938F9325
:100900009F93AF93BF93EF93FF9389EB91E00E9486
:100910007001FF91EF91BF91AF919F918F917F9166
:100920006F915F914F913F912F910F900FBE0F905C
:100930001F9018951F920F920FB60F9211242F93AC
:100940008F939F93EF93FF93E091C901F091CA01B8
:100950008081E091CF01F091D00182FD12C09081A1
:100960008091D2018F5F8F732091D301821751F054
:10097000E091D201F0E0E754FE4F958F8093D201D1
:1009800001C08081FF91EF919F918F912F910F90E6
:100990000FBE0F901F9018951F920F920FB60F92D7
:1009A00011242F933F938F939F93AF93BF93809185
:1009B000AF019091B001A091B101B091B20130911D
:1009C000AE0123E0230F2D3720F40196A11DB11DA8
:1009D00005C026E8230F0296A11DB11D2093AE018C
:1009E0008093AF019093B001A093B101B093B20195
:1009F0008091B3019091B401A091B501B091B6017D
:100A00000196A11DB11D8093B3019093B401A093F1
:100A1000B501B093B601BF91AF919F918F913F9176
:100A20002F910F900FBE0F901F901895CF93DF93CB
:100A3000CDB7DEB7C05FD1400FB6F894DEBF0FBEB2
:100A4000CDBF789484B5826084BD84B5816084BD57
:100A500085B5826085BD85B5816085BD80916E005C
:100A6000816080936E00109281008091810082608D
:100A700080938100809181008160809381008091CA
:100A800080008160809380008091B10084608093B9
:100A9000B1008091B00081608093B00080917A00B5
:100AA000846080937A0080917A00826080937A00DB
:100AB00080917A00816080937A0080917A008068CA
:100AC00080937A001092C100E091C901F091CA01AF
:100AD00082E08083E091C501F091C6011082E0912F
:100AE000C701F091C80180E180831092D101E091AB
:100AF000CD01F091CE0186E08083E091CB01F091B1
:100B0000CC01808180618083E091CB01F091CC01A8
:100B1000808188608083E091CB01F091CC0180815D
:100B200080688083E091CB01F091CC0180818F7D42
:100B300080830E946502611571058105910511F0A0
:100B40000E94630B88E0809358028093590280933F
:100B50005A0280935B026CEF70E089EB91E00E9497
:100B6000560460E086E00E9404021092B8011092E0
:100B7000B70189ED90E08C0F9D1F0496C351DE4FA5
:100B800099838883CD5ED140A9E4B0E0AC0FBD1F4E
:100B90001496C151DE4FB983A883CF5ED14080B394
:100BA00021B386FB222420F8312C8091B70190914B
:100BB000B8018215930509F4A2C282E090E0A0E09A
:100BC000B0E0C753DE4F88839983AA83BB83C95C97
:100BD000D140C353DE4F8881CD5CD140807F83609C
:100BE000C353DE4F8883CD5CD14086E090E0A0E027
:100BF000B0E0CF52DE4F88839983AA83BB83C15D67
:100C0000D140CB52DE4F8881C55DD140807F83606B
:100C1000CB52DE4F8883C55DD1400E946502C7522A
:100C2000DE4F688379838A839B83C95DD140211419
:100C3000310419F065E871E002C06AE871E0CE01A4
:100C400087559E4F0E94090B84E4FE01E755FE4F35
:100C5000DE01AB59BE4F01900D928A95E1F769E52F
:100C600078E08EE592E00E9487038AE791E02B9678
:100C70009FAF8EAF2B9780917B0290917C02A091C9
:100C80007D02B0917E022F968CAF9DAFAEAFBFAF0D
:100C90002F9749E558E0BE01675B7F4F8EE592E0F4
:100CA0000E945C0381E0C752DF4F8883C95DD0405A
:100CB0000E945E0B20E030E040E051E00E946C0BAF
:100CC000C652DF4F688379838A83CA5DD04084E44B
:100CD000FE01EB59FE4FC351DE4FA881B981CD5EB5
:100CE000D14001900D928A95E1F748E450E0BE01B1
:100CF00067527F4F8EE592E00E94140367E571E032
:100D000089EB91E00E94E90088E4FE01E752FF4F81
:100D1000DE01119601900D928A95E1F761E571E08F
:100D200089EB91E00E94E9004981477050E060E062
:100D300070E02AE089EB91E00E94C7036AE471E069
:100D400089EB91E00E94E9004981469546954695D8
:100D500050E060E070E02AE089EB91E00E94C70378
:100D600062E471E089EB91E00E94E9008A819B8155
:100D7000AC81AC016A2F70E02AE089EB91E00E941F
:100D8000C7036EE371E089EB91E00E94E900BE01C8
:100D90006B5F7F4F89EB91E00E94B20365E371E0E6
:100DA00089EB91E00E94E9004DA15EA16FA178A5B9
:100DB0002AE089EB91E00E94C70362E371E089EBCE
:100DC00091E00E94E9008E01035D1F4F812C912C60
:100DD00054018DA19EA1AFA1B8A588169906AA06B7
:100DE000BB0608F00EC1740195E0E90EF11C93E01A
:100DF000EE0CFF1C9A95E1F7A1E0B0E0AC0FBD1F2F
:100E0000EA0EFB1EF70180818E70823049F56CE29C
:100E100071E089EB91E00E94E900D7018C9180FF9D
:100E20002CC0F801C080D180E280F380F7FE0EC0B4
:100E30006DE289EB91E00E94E20044275527BA0158
:100E40004C195D096E097F092AE003C02AE0B70149
:100E5000A60189EB91E00E94C70368E271E0BEC081
:100E6000843009F0C0C060E271E089EB91E00E943B
:100E7000E900D7018C9180FD03C06FE871E0B5C037
:100E8000F801C080D180E280F380A7019601C701FC
:100E9000B6010E94FF0A882319F064E971E01AC0C4
:100EA00026013701E89477F82FEF3FEF4FE75FE730
:100EB000C301B2010E94FF0A811111C02FEF3FEF61
:100EC0004FE75FE7C301B2010E94A70918163CF47F
:100ED00068E971E089EB91E00E94B2037DC02FEFD9
:100EE0003FEF4FE75FE4C701B6010E948D0A181675
:100EF0001CF46CE971E0EECF2FEF3FEF4FE75FECB2
:100F0000C701B6010E94A70987FDF3CF20E030E0BA
:100F1000A901C701B6010E94A70987FF09C06DE2B8
:100F200089EB91E00E94E200F7FAF094F7F8F09470
:100F30002AE037ED43EA5BE3C701B6010E943B09B3
:100F40002B013C010E94AC096B017C010E94DB0972
:100F50009B01AC01C301B2010E943A092B013C0183
:100F60002AE0B701A60189EB91E00E94C7036EE277
:100F700089EB91E00E94E20020E030E040E251E4A1
:100F8000C301B2010E94920A6B017C010E94AC096C
:100F90002B01612C712C2AE0B301A20189EB91E0B5
:100FA0000E94C703C301B2010E94DB099B01AC018F
:100FB000C701B6010E943A0920E030E040E251E466
:100FC0000E94920A0E94AC09AB0160E070E02AE046
:100FD00089EB91E00E94C7036CE171E089EB91E03D
:100FE0000E94E90006C060EA71E089EB91E00E948E
:100FF000B203FFEF8F1A9F0AAF0ABF0A085F1F4FA5
:10100000E8CE69E171E089EB91E00E9456048EE53B
:1010100092E00E94510369E578E08EE592E00E943B
:1010200087038EE592E00E94DA02892BD1F348E42F
:1010300050E0BE016F567F4F8EE592E00E94850220
:1010400069E578E08EE592E00E9487038AE791E007
:101050002B969FAF8EAF2B9780917B0290917C0255
:10106000A0917D02B0917E022F968CAF9DAFAEAF66
:10107000BFAF2F9749E558E0BE01675B7F4F8EE514
:1010800092E00E945C03BE016B597E4FCE018F5DE2
:101090009E4F0E94090BCF5BDE4F188219821A8285
:1010A0001B82C154D14089E02A968FAF2A970E94B3
:1010B0005E0B20E030E040E051E00E946C0B2D968A
:1010C0006DAF7EAF8FAF2D9784E4FE01EF5DFE4FD5
:1010D000C151DE4FA881B981CF5ED14001900D9200
:1010E0008A95E1F748E450E0BE01675B7F4F8EE5EB
:1010F00092E00E9414038EE592E00E945103309228
:10110000B8012092B7010E9440024B015C0184EFBC
:10111000C82EDD24D394E12CF12C0E944002DC0186
:10112000CB0188199909AA09BB09883E9340A105FA
:10113000B10558F021E0C21AD108E108F10888EEA3
:10114000880E83E0981EA11CB11CC114D104E104D7
:10115000F10419F70E94FA0122CDE9EBF1E01382C4
:10116000128248EE53E060E070E04483558366836A
:10117000778388E091E09183808385EC90E0958788
:10118000848784EC90E09787868780EC90E0918B51
:10119000808B81EC90E0938B828B82EC90E0958B3E
:1011A000848B86EC90E0978B868B118E128E138E3B
:1011B000148EEFE7F2E08AE791E091838083128258
:1011C000138214821582E5E8F2E091838083128213
:1011D000138214821582EBE8F2E0918380831282FD
:1011E000138214821582E6E5F2E0918380831282F5
:1011F000138214821582E1E9F2E0918380831282E6
:10120000138214821582E7E9F2E0918380831282CF
:10121000138214821582EDE9F2E0918380831282B9
:10122000138214821582E9E7F2E09183808320EC37
:10123000228328EA238328E3248325E62583EEE519
:10124000F2E013821282448355836683778324E518
:1012500031E03183208397878687108A118A128A2A
:10126000138A84E0808F0895EE0FFF1F0590F4919C
:10127000E02D09945058BB27AA270E9452090C94CC
:10128000530A0E94450A38F00E944C0A20F039F4B3
:101290009F3F19F426F40C94420A0EF4E095E7FB04
:1012A0000C943C0AE92F0E94640A58F3BA176207AB
:1012B00073078407950720F079F4A6F50C94860A45
:1012C0000EF4E0950B2EBA2FA02D0B01B901900161
:1012D0000C01CA01A0011124FF27591B99F0593FA5
:1012E00050F4503E68F11A16F040A22F232F342FED
:1012F0004427585FF3CF469537952795A795F0403B
:101300005395C9F77EF41F16BA0B620B730B840B4F
:10131000BAF09150A1F0FF0FBB1F661F771F881F07
:10132000C2F70EC0BA0F621F731F841F48F487955F
:1013300077956795B795F7959E3F08F0B0CF939551
:10134000880F08F09927EE0F9795879508950E94CA
:10135000180A08F481E008950E946C0A88F09F57EB
:1013600098F0B92F9927B751B0F0E1F0660F771FC9
:10137000881F991F1AF0BA95C9F714C0B13091F0BF
:101380000E94860AB1E008950C94860A672F782F90
:101390008827B85F39F0B93FCCF386957795679584
:1013A000B395D9F73EF490958095709561957F4FF0
:1013B0008F4F9F4F0895E89409C097FB3EF4909596
:1013C0008095709561957F4F8F4F9F4F9923A9F01E
:1013D000F92F96E9BB279395F695879577956795AD
:1013E000B795F111F8CFFAF4BB0F11F460FF1BC0F1
:1013F0006F5F7F4F8F4F9F4F16C0882311F096E984
:1014000011C0772321F09EE8872F762F05C0662331
:1014100071F096E8862F70E060E02AF09A95660FEA
:10142000771F881FDAF7880F9695879597F90895A3
:10143000990F0008550FAA0BE0E8FEEF16161706E5
:10144000E807F907C0F012161306E407F50798F04D
:10145000621B730B840B950B39F40A2661F0232B66
:10146000242B252B21F408950A2609F4A140A695E2
:101470008FEF811D811D089597F99F6780E870E0C7
:1014800060E008959FEF80EC089500240A941616FA
:10149000170618060906089500240A941216130662
:1014A000140605060895092E0394000C11F48823F0
:1014B00052F0BB0F40F4BF2B11F460FF04C06F5F0C
:1014C0007F4F8F4F9F4F089557FD9058440F551FE2
:1014D00059F05F3F71F04795880F97FB991F61F0B6
:1014E0009F3F79F087950895121613061406551F2D
:1014F000F2CF4695F1DF08C0161617061806991F99
:10150000F1CF86957105610508940895E894BB278D
:1015100066277727CB0197F908950E94180A08F4E7
:101520008FEF08950E94A50A0C94530A0E94450A61
:1015300038F00E944C0A20F0952311F00C943C0ADC
:101540000C94420A11240C94870A0E94640A70F3D6
:10155000959FC1F3950F50E0551F629FF001729F58
:10156000BB27F00DB11D639FAA27F00DB11DAA1F67
:10157000649F6627B00DA11D661F829F2227B00DB4
:10158000A11D621F739FB00DA11D621F839FA00D3F
:10159000611D221F749F3327A00D611D231F849F8F
:1015A000600D211D822F762F6A2F11249F575040E6
:1015B0009AF0F1F088234AF0EE0FFF1FBB1F661F61
:1015C000771F881F91505040A9F79E3F510580F02A
:1015D0000C943C0A0C94870A5F3FE4F3983ED4F3E2
:1015E000869577956795B795F795E7959F5FC1F7CE
:1015F000FE2B880F911D9695879597F908950E9467
:10160000180A880B990B089581E090E0F8940C94E7
:10161000CF0BFB01DC0101900D920020E1F7089552
:101620008F929F92AF92BF92CF92DF92EF92FF92F2
:10163000CF93DF93EC01688179818A819B81611569
:1016400071058105910521F464E279ED8BE597E060
:101650002DE133EF41E050E00E946C0B49015A014B
:101660009B01AC01A7EAB1E40E948B0B6B017C01EA
:10167000ACEEB4EFA50194010E94990BDC01CB0103
:101680008C0D9D1DAE1DBF1DB7FF03C00197A109A5
:10169000B04888839983AA83BB83BC01CD019F771F
:1016A000DF91CF91FF90EF90DF90CF90BF90AF9000
:1016B0009F908F9008950E94100B089580E091E014
:1016C0000E94100B089560930001709301018093B4
:1016D0000201909303010895052E97FB1EF40094D8
:1016E0000E94830B57FD07D00E949E0B07FC03D07E
:1016F0004EF40C94830B50954095309521953F4FB7
:101700004F4F5F4F089590958095709561957F4FED
:101710008F4F9F4F08950E94C00BA59F900DB49FBF
:10172000900DA49F800D911D11240895B7FF0C9476
:101730008B0B0E948B0B821B930B0895A1E21A2E38
:10174000AA1BBB1BFD010DC0AA1FBB1FEE1FFF1F65
:10175000A217B307E407F50720F0A21BB30BE40BB5
:10176000F50B661F771F881F991F1A9469F76095FC
:101770007095809590959B01AC01BD01CF010895B6
:10178000A29FB001B39FC001A39F700D811D1124C2
:10179000911DB29F700D811D1124911D0895F89423
:0217A000FFCF79
:1017A200010000000000000091010D015A01380102
:1017B2004C01D80100000000B003B003B003B00335
:1017C200B003B003B003B003B003B003B003B0037F
:1017D200B003B003B003B00300000000B0030D017A
:1017E200B003B003B003B00300000000B0030D016A
:1017F200000000003B0314038003BD028202780252
:101802008703E1005C036A045103DA028502A9033B
:101812009903950376020000000010040000000006
:10182200B0030D0A00302D3E3100312D3E30003F15
:10183200292C20006E616E00696E66006F7666006C
:0E18420028756E646566696E6564292C200049
:00000001FF
