:100000000C9409010C9431010C9431010C943101D0
:100010000C9431010C9431010C9431010C94310198
:100020000C9431010C9431010C9431010C94310188
:100030000C9431010C9431010C9431010C94310178
:100040000C94A7050C9431010C9475050C944F0584
:100050000C9431010C9431010C9431010C94310158
:100060000C9431010C943101207D00292C200028B2
:10007000666C6F61742000292C200028696E742042
:10008000003A2000602C2073697A653D002C2060C6
:1000900000292C206E756D3D002C20666C3D2800DB
:1000A0007B2072743D005A73757445746865726E76
:1000B00065745544503A3A626567696E5061636B86
:1000C000657428636F6E73742063686172202A6898
:1000D0006F73742C2075696E7431365F7420706F85
:1000E0007274293B206973206E6F74207375707071
:1000F0006F727465642120536F7272792100290038
:1001000028666C6F617420002900090928696E74E3
:100110002000095061636B6574207475706C6520F4
:1001200073697A653A2000095061636B65742074C5
:1001300075706C65206E616D653A200009506163D1
:100140006B6574206E756D6265723A2000095061AE
:10015000636B657420666C6167733A2000095061B7
:10016000636B657420726571756573742074797042
:10017000653A2000476F742048454C4C4F2072650B
:1001800073706F6E73652066726F6D207365727623
:1001900065723A20005B494E5D20476F74206261B2
:1001A000636B207061636B65743A005B4F55545DFF
:1001B0002053656E74207061636B65743A20005340
:1001C000656E64696E67204F5554207769746820A6
:1001D000636865636B65642D6F7574206E756D6201
:1001E0006572005B616674657220494E5D20476FE1
:1001F00074207061636B65740057616974696E6720
:1002000020666F72207061636B65742E2E2E000065
:10021000EE0B11241FBECFEFD8E0DEBFCDBF22E032
:10022000A2EEB1E001C01D92A53DB207E1F711E0D9
:10023000A0E0B1E0EAE2FFE102C005900D92A23E2B
:10024000B107D9F711E0C9E0D1E004C02197FE0160
:100250000E949D0CC830D107C9F70E941C070C945E
:10026000930F0C9400000895EF92FF920F931F9349
:10027000CF93DF938C017B01C0E0D0E0F701EC0F5E
:10028000FD1F6491662361F0D801ED91FC9101900E
:10029000F081E02DC8010995892B11F02196EECF50
:1002A000CE01DF91CF911F910F91FF90EF900895B4
:1002B000CF92DF92EF92FF920F931F93CF93DF9332
:1002C0006C017A018B01C0E0D0E0CE15DF0589F02A
:1002D000D8016D918D01D601ED91FC910190F081D5
:1002E000E02DC6010995892B11F47E0102C02196EB
:1002F000ECCFC701DF91CF911F910F91FF90EF904D
:10030000DF90CF900895FC01918D828D981761F058
:10031000828DDF01A80FB11D5D968C91928D9F5F3C
:100320009F73928F90E008958FEF9FEF0895FC01E7
:10033000918D828D981731F0828DE80FF11D858D9A
:1003400090E008958FEF9FEF0895FC01918D228D2D
:10035000892F90E0805C9F4F821B91098F739927B2
:1003600008958BEE91E00E94A50121E0892B09F40C
:1003700020E0822F0895FC01848DDF01A80FB11DBC
:10038000A35ABF4F2C91848D90E001968F739927CB
:10039000848FA689B7892C93A089B1898C918064B8
:1003A0008C93938D848D981306C00288F389E02D79
:1003B00080818F7D80830895EF92FF920F931F932A
:1003C000CF93DF93EC0181E0888F9B8D8C8D981308
:1003D00005C0E889F989808185FD24C0F62E0B8D42
:1003E00010E00F5F1F4F0F731127E02E8C8DE81266
:1003F0000CC00FB607FCFACFE889F989808185FF28
:10040000F5CFCE010E94BB01F1CF8B8DFE01E80F2D
:10041000F11DE35AFF4FF0820B8FEA89FB8980813F
:10042000806207C0EE89FF896083E889F98980814D
:100430008064808381E090E0DF91CF911F910F91E4
:10044000FF90EF900895CF93DF93EC01888D882380
:10045000C9F0EA89FB89808185FD05C0A889B98931
:100460008C9186FD0FC00FB607FCF5CF808185FF0C
:10047000F2CFA889B9898C9185FFEDCFCE010E947A
:10048000BB01E7CFDF91CF91089580E090E0892B09
:1004900029F00E94B10181110C94000008953FB72A
:1004A000F8948091E7019091E801A091E901B09161
:1004B000EA0126B5A89B05C02F3F19F00196A11DA2
:1004C000B11D3FBFBA2FA92F982F8827820F911DEA
:1004D000A11DB11DBC01CD0142E0660F771F881F31
:1004E000991F4A95D1F7089581E0089587E08CBF60
:1004F00095EE9BBF1ABE8CBF86EE8BBF1ABE0895C9
:1005000080E090E0089597E09CBF87EE8BBF8AB7AC
:100510009CBF28EE2BBF2AB730E0382B9CBF85EE5E
:100520008BBFEAB79CBF86EE8BBF9AB7892F90E04E
:100530009E2B821B930B8417950708F0CA01FB01C1
:10054000A9014751584F680F791FE617F70739F08F
:100550005CBF4BBFAAB7A1934F5F5F4FF6CF280F89
:10056000391F47E04CBF57EE5BBF3ABF4CBF38EE78
:100570003BBF2ABF0895CF93DF931F92CDB7DEB75D
:10058000DC01ED91FC91008CF18DE02D41E050E01B
:10059000BE016F5F7F4F0995181619061CF48981FB
:1005A00090E002C08FEF9FEF0F90DF91CF91089501
:1005B000FC0187E08CBF95EE9BBF3AB78CBF96EEEF
:1005C0009BBF9AB78CBF27EE2BBF6AB78CBF88EE54
:1005D0008BBF2AB71CBE80E18BBF8AB71CBE4FE021
:1005E0004BBF4AB71CBE5EE05BBF5AB71CBE7DE086
:1005F0007BBF7AB7708B518B428B838B1CBE81E1A2
:100600008BBF8AB71CBE42E14BBF4AB750E0582BA4
:10061000558B448B892F90E0932B30E0362B821B37
:10062000930B08951CBE83E18BBF2AB71CBE84E1E7
:100630008BBF8AB790E0922BFB019C012B5E3F4F52
:10064000640F751FE617F70739F0A1913CBF2BBF68
:10065000AABF2F5F3F4FF6CF480F591F1CBE83E143
:100660008BBF5ABF1CBE84E18BBF4ABF80E090E0C5
:100670000895CF93DF931F92CDB7DEB76983DC0176
:10068000ED91FC910280F381E02D41E050E0BE014C
:100690006F5F7F4F09950F90DF91CF9108951CBE3A
:1006A0001BBE8FEF8ABF1CBE1BBE82E08ABF80E0EC
:1006B00090E00895FB0132812381948185811CBEE5
:1006C0001BBE61E06ABF1CBE6DE06BBF3ABF1CBEC3
:1006D0003EE03BBF2ABF1CBE2FE02BBF9ABF1CBE13
:1006E00090E19BBF8ABF1CBE81E18BBF5ABF1CBE7D
:1006F00082E18BBF4ABF81E090E00895DC01ED917B
:10070000FC910688F789E02D09941CBE8BE08BBF15
:100710007ABF1CBE8CE08BBF6ABF1CBE1BBE83E0D1
:100720008ABF81E00895FC018489958908952AE7AC
:1007300031E0FC0131832083FB01408951896289CA
:100740007389FC0142835383648375830895DC01BC
:10075000ED91FC91008CF18DE02D09940E94C80E62
:10076000DC01ED91FC910190F081E02D099461157F
:10077000710579F0FB0101900020E9F73197AF0195
:10078000461B570BDC01ED91FC910280F381E02DBB
:10079000099480E090E008954F925F926F927F926B
:1007A000EF92FF920F931F93CF93DF93CDB7DEB7F6
:1007B000A1970FB6F894DEBF0FBECDBF7C01FA0142
:1007C000CB0119A2223008F42AE08E010F5D1F4FE1
:1007D000422E512C612C712CBF01A30192010E9469
:1007E000620FF901CA01015011096A3014F4605D09
:1007F00001C0695CD8016C93232B242B252B61F756
:10080000B801C7010E94B703A1960FB6F894DEBFE6
:100810000FBECDBFDF91CF911F910F91FF90EF9051
:100820007F906F905F904F9008958F929F92AF92BC
:10083000BF92CF92DF92EF92FF920F931F93CF93CD
:10084000DF937C018B016C0182E0C80ED11C470153
:10085000E5E08E0E911CC0E0D0E0F60141916F0101
:1008600050E060E070E02AE0C8010E94CC035C0127
:100870006EE2C8010E94B0038A0D9B1DC80FD91FEC
:10088000C814D90451F7F701458150E060E070E0E9
:100890002AE0C8010E94CC038C0F9D1FDF91CF91ED
:1008A0001F910F91FF90EF90DF90CF90BF90AF908E
:1008B0009F908F9008950F931F93CF93DF93EC0138
:1008C0000E9434018C0162E871E0CE010E94B703FE
:1008D000800F911FDF91CF911F910F91089566EACC
:1008E00070E08BEE91E00E945B04989580E090E0D0
:1008F0000895AF92BF92CF92DF92EF92FF920F9343
:100900001F93CF93DF93CDB7DEB760EA70E08BEE35
:1009100091E00E9434014D85477050E060E070E046
:100920002AE08BEE91E00E94CC0369E970E08BEE47
:1009300091E00E9434014D8546954695469550E0DC
:1009400060E070E02AE08BEE91E00E94CC0361E968
:1009500070E08BEE91E00E9434018E859F85A8891E
:10096000AC016A2F70E02AE08BEE91E00E94CC038C
:100970006DE870E08BEE91E00E943401BE016F5E85
:100980007F4F8BEE91E00E94B70364E870E08BEE3E
:1009900091E00E94340149A95AA96BA97CA92AE0D7
:1009A0008BEE91E00E94CC0361E870E08BEE91E069
:1009B0000E9434015E0189E3A80EB11CC12CD12C28
:1009C000760189A99AA9ABA9BCA9C816D906EA06D5
:1009D000FB0608F053C086010B5F1F4F83E0000F3A
:1009E000111F8A95E1F7EDE0F0E0EC0FFD1F0E0F0F
:1009F0001F1FF80180818E708230B9F46BE770E0C0
:100A00008BEE91E00E943401F801808180FF0AC0E2
:100A1000F50160817181828193810E94C20667E73E
:100A200070E018C065E871E01CC08430C1F46FE666
:100A300070E08BEE91E00E943401F801808180FF2C
:100A4000F1CFF50160817181828193810E94F1056E
:100A50006BE670E08BEE91E00E94340106C06AE81C
:100A600071E08BEE91E00E94B703FFEFCF1ADF0A2F
:100A7000EF0AFF0A88E0A80EB11CA3CF68E670E079
:100A80008BEE91E00E945B04DF91CF911F910F915B
:100A9000FF90EF90DF90CF90BF90AF9008951F929E
:100AA0000F920FB60F9211242F933F934F935F93A2
:100AB0006F937F938F939F93AF93BF93EF93FF9326
:100AC0008BEE91E00E94BB01FF91EF91BF91AF913E
:100AD0009F918F917F916F915F914F913F912F9156
:100AE0000F900FBE0F901F9018951F920F920FB688
:100AF0000F9211242F938F939F93EF93FF93E09185
:100B0000FB01F091FC018081E0910102F091020271
:100B100082FD12C09081809104028F5F8F732091BB
:100B20000502821751F0E0910402F0E0E551FE4F1A
:100B3000958F8093040201C08081FF91EF919F9176
:100B40008F912F910F900FBE0F901F9018951F92AD
:100B50000F920FB60F9211242F933F938F939F9371
:100B6000AF93BF938091E3019091E401A091E501DF
:100B7000B091E6013091E20123E0230F2D3720F4FC
:100B80000196A11DB11D05C026E8230F0296A11DE7
:100B9000B11D2093E2018093E3019093E401A093BF
:100BA000E501B093E6018091E7019091E801A09101
:100BB000E901B091EA010196A11DB11D8093E70101
:100BC0009093E801A093E901B093EA01BF91AF913E
:100BD0009F918F913F912F910F900FBE0F901F907B
:100BE00018958F929F92AF92BF92CF92DF92EF9221
:100BF000FF92CF93DF936B017C019B01AC010E94BC
:100C0000AE0E882319F065ED71E027C0460157014B
:100C1000E894B7F82FEF3FEF4FE75FE7C501B40166
:100C20000E94AE0E81110DC02FEF3FEF4FE75FE73F
:100C3000C501B4010E94100D18161CF469ED71E095
:100C40000CC02FEF3FEF4FE75FE4C701B6010E94F2
:100C5000F60D181684F46DED71E08BEE91E0DF91E6
:100C6000CF91FF90EF90DF90CF90BF90AF909F908B
:100C70008F900C94B7032FEF3FEF4FE75FECC70166
:100C8000B6010E94100D87FDE6CF20E030E0A901FB
:100C9000C701B6010E94100D87FF0BC06DE28BEEFD
:100CA00091E00E94B003EC01F7FAF094F7F8F094A9
:100CB00002C0C0E0D0E02AE037ED43EA5BE3C701C1
:100CC000B6010E94A40C4B015C010E94150D6B0142
:100CD0007C010E94440D9B01AC01C501B4010E943E
:100CE000A30C4B015C012AE0B701A6018BEE91E059
:100CF0000E94CC03C80FD91F6EE28BEE91E00E94D8
:100D0000B003C80FD91F20E030E040E251E4C50134
:100D1000B4010E94FB0D4B015C010E94150D6B019B
:100D2000E12CF12C2AE0B701A6018BEE91E00E94A4
:100D3000CC03C80FD91FC701B6010E94440D9B0107
:100D4000AC01C501B4010E94A30C20E030E040E2F8
:100D500051E40E94FB0D0E94150DAB0160E070E0B4
:100D60002AE08BEE91E00E94CC038C0F9D1FDF9157
:100D7000CF91FF90EF90DF90CF90BF90AF909F907A
:100D80008F900895CF92DF92EF92FF92CF93DF93EF
:100D9000AB01BC0177FF1DC06A017B016DE28BEEE8
:100DA00091E00E94B003EC0144275527BA014C1989
:100DB0005D096E097F092AE08BEE91E00E94CC0369
:100DC0008C0F9D1FDF91CF91FF90EF90DF90CF9020
:100DD00008952AE08BEE91E0DF91CF91FF90EF90A4
:100DE000DF90CF900C94CC03CF93DF93BC018BEEBC
:100DF00091E00E94B703EC0162E871E08BEE91E0B4
:100E00000E94B7038C0F9D1FDF91CF910895CF9360
:100E1000DF93AB01BC012AE08BEE91E00E94CC0392
:100E2000EC0162E871E08BEE91E00E94B7038C0F59
:100E30009D1FDF91CF910895CF93DF93CDB7DEB79C
:100E4000CE53D2400FB6F894DEBF0FBECDBF78941C
:100E500084B5826084BD84B5816084BD85B58260BF
:100E600085BD85B5816085BD80916E008160809370
:100E70006E001092810080918100826080938100D9
:100E800080918100816080938100809180008160E9
:100E9000809380008091B10084608093B100809144
:100EA000B00081608093B00080917A00846080936C
:100EB0007A0080917A00826080937A0080917A0033
:100EC000816080937A0080917A00806880937A00B4
:100ED0001092C100E091FB01F091FC0182E080835F
:100EE000E091F701F091F8011082E091F901F091A1
:100EF000FA0180E1808310920302E091FF01F091FA
:100F0000000286E08083E091FD01F091FE01808186
:100F100080618083E091FD01F091FE018081886015
:100F20008083E091FD01F091FE01808180688083E3
:100F3000E091FD01F091FE0180818F7D808360E072
:100F400072EC81E090E00E94270F88E080938A0293
:100F500080938B0280938C0280938D0269E578E008
:100F600080E992E00E9485038AE791E09A83898371
:100F70008091AD029091AE02A091AF02B091B0020B
:100F80008B839C83AD83BE8349E558E0BE016F5FD0
:100F90007F4F80E992E00E945A0368E971E0CE0138
:100FA0008F569F4F0E94CD0ECF54DF4F188219826B
:100FB0001A821B82C15BD04080E42A968FAF2A97A9
:100FC0002D961DAE1EAE1FAE2D9784E4FE01EF568A
:100FD000FF4FA9E4B0E0AC0FBD1F149601900D9235
:100FE0008A95E1F748E450E0BE01675B7F4F80E9F6
:100FF00092E00E94120380E992E00E944F0369E5AB
:1010000078E080E992E00E94850380E992E00E9406
:10101000D802892BD1F348E450E0BE016F5F7F4FC7
:1010200080E992E00E94830264E771E08BEE91E038
:101030000E94340188E4FE013196DE01A752BF4FC1
:1010400001900D928A95E1F76DE571E08BEE91E0EC
:101050000E943401C752DF4F6881C95DD04067707C
:1010600070E080E090E00E9407076DE471E08BEE95
:1010700091E00E943401C752DF4F6881C95DD040C2
:1010800066956695669570E080E090E00E9407079F
:101090006CE371E08BEE91E00E943401C652DF4FA9
:1010A00088819981AA81CA5DD040BC018A2F90E0D5
:1010B0000E94070767E271E08BEE91E00E94340125
:1010C00089ED90E08C0F9D1F04960E94F40662E16A
:1010D00071E08BEE91E00E943401C350DF4F6881D4
:1010E00079818A819B81CD5FD0400E94070769ED9D
:1010F000A62EB12CAC0EBD1E6CE2A60EB11CC12CEE
:10110000D12C7601C350DF4F88819981AA81BB81A0
:10111000CD5FD040C816D906EA06FB0608F051C0DC
:1011200086010B5F1F4F53E0000F111F5A95E1F727
:1011300089ED90E08C0F9D1F080F191FF801808129
:101140008E708230B9F46AE071E08BEE91E00E941B
:101150003401F801808180FF0AC0F501608171814E
:10116000828193810E94C20668E071E018C08AEA19
:1011700091E01CC08430C1F460E071E08BEE91E03E
:101180000E943401F801808180FFF1CFF501608178
:101190007181828193810E94F1056EEF70E08BEE88
:1011A00091E00E945B0404C08DEA91E00E94F40685
:1011B000FFEFCF1ADF0AEF0AFF0A68E0A60EB11CA4
:1011C000A1CF69E578E080E992E00E9485038AE793
:1011D00091E0CF5DDE4F99838883C152D1408091E9
:1011E000AD029091AE02A091AF02B091B002CD5D80
:1011F000DE4F88839983AA83BB83C352D14049E5DC
:1012000058E0BE016F5D7E4F80E992E00E945A0374
:101210002A968FAD2A9788602A968FAF2A9748E43E
:1012200050E0BE01675B7F4F80E992E00E941203AD
:1012300080E992E00E944F03412C512C32014394EB
:101240003AE7232E31E0332EC12CD12C7601F394D2
:1012500014E481E990E08C0F9D1F0496CF5CDD4F74
:1012600099838883C153D240EDEEF1E0EC0FFD1F6E
:10127000B496C95CDD4FF983E883C753D24089EA4D
:1012800091E08C0F9D1F8496C75CDD4F9983888306
:10129000C953D24069EF71E08BEE91E00E945B048C
:1012A00069EB71E0CE0183519E4F0E94CD0EC35F6A
:1012B000DD4F488259826A827B82CD50D240CF5E18
:1012C000DD4F8881C151D240807F8260CF5EDD4F8B
:1012D0008883C151D24069E578E080E992E00E94BC
:1012E00085033A8229828091AD029091AE02A0914D
:1012F000AF02B091B0028B839C83AD83BE8349E57E
:1013000058E0BE016F5F7F4F80E992E00E945A0370
:1013100082E0CF56DF4F8883C159D0400E94220F10
:10132000A70196010E94300FCE56DF4F6883798364
:101330008A83C259D040FE01E351FE4FCF5CDD4F9E
:10134000A881B981C153D240812F01900D928A9515
:10135000E1F748E450E0BE016F567F4F80E992E02C
:101360000E94120380E992E00E944F0369E578E051
:1013700080E992E00E94850380E992E00E94D80211
:10138000892BD1F348E450E0BE01675B7F4F80E9D1
:1013900092E00E94830265E971E08BEE91E00E9489
:1013A0003401EDB7FEB7E854F1090FB6F894FEBF6B
:1013B0000FBEEDBFADB7BEB7119688E4FE01E75B87
:1013C000FF4F01900D928A95E1F70E947904E9E4BC
:1013D000F0E0EC0FFD1F3496DE01A351BE4F812FCC
:1013E00001900D928A95E1F70FB6F894DEBF0FBE1B
:1013F000CDBF69E578E080E992E00E9485033A82FA
:1014000029828091AD029091AE02A091AF02B0917D
:10141000B0028B839C83AD83BE8349E558E0BE0157
:101420006F5F7F4F80E992E00E945A03BE016351D3
:101430007E4FCE018F5D9E4F0E94CD0ECF5BDE4F63
:10144000188219821A821B82C154D1408AE0898392
:101450000E94220FA70196010E94300F6A837B83AE
:101460008C83FE01EF5DFE4FDE011596812F01900A
:101470000D928A95E1F748E450E0BE016F5F7F4F1F
:1014800080E992E00E94120380E992E00E944F03FB
:101490002A960FAD2A97001F0027001F81E008271A
:1014A00031F063EE71E08BEE91E00E945B04CB5E65
:1014B000DD4FA880B980C551D24092E0A916B10491
:1014C000C4F1E2E0AE16B10489F1B5010B2C000CB9
:1014D000880B990B0E94460D0E946E0ECD5CDD4F6D
:1014E000688379838A839B83C353D24092E0892E99
:1014F000912CB401092C000C880B990B0E94460D0D
:10150000CD5CDD4F288139814A815B81C353D24054
:101510000E94100D181654F0C501B4010E94750CFC
:10152000892B39F0FFEF8F1A9F0AE3CF6FEB71E041
:1015300002C068EC71E0CE0187559E4F0E94CD0E2F
:10154000C753DE4F488259826A827B82C95CD14090
:1015500088E0C95CDD4FE881F981C753D240C75CA0
:10156000DD4FA881B981C953D24001900D928A956F
:10157000E1F7002309F4E1C06FEB71E08BEE91E03D
:101580000E945B04FE01E755FE4FDE01AB59BE4FE2
:10159000812F01900D928A95E1F769E578E080E965
:1015A00092E00E9485033A8229828091AD02909157
:1015B000AE02A091AF02B091B0028B839C83AD8349
:1015C000BE8349E558E0BE016F5F7F4F80E992E03E
:1015D0000E945A0381E0CF56DF4F8883C159D04023
:1015E0000E94220FA70196010E94300FCE56DF4FB6
:1015F000688379838A83C259D040FE01EB59FE4F3C
:10160000CF5CDD4FA881B981C153D240812F0190B9
:101610000D928A95E1F748E450E0BE016F567F4F86
:1016200080E992E00E9412036BEA71E08BEE91E098
:101630000E9434018DB79EB7885491090FB6F89473
:101640009EBF0FBE8DBFADB7BEB7119688E4FE0139
:10165000EF56FF4F01900D928A95E1F70E947904B1
:101660000FB6F894DEBF0FBECDBF80E992E00E94B6
:101670004F0369E578E080E992E00E94850380E904
:1016800092E00E94D802892BD1F348E450E0BE01D9
:10169000675B7F4F80E992E00E94830269E578E012
:1016A00080E992E00E9485033A8229828091AD020E
:1016B0009091AE02A091AF02B091B0028B839C8357
:1016C000AD83BE8349E558E0BE016F5F7F4F80E97F
:1016D00092E00E945A03BE016B597E4FCE018F5D8E
:1016E0009E4F0E94CD0ECF5BDE4F188219821A8268
:1016F0001B82C154D14089E089830E94220FA70137
:1017000096010E94300F6A837B838C83FE01EF5D1C
:10171000FE4FDE011596812F01900D928A95E1F71B
:1017200048E450E0BE016F5F7F4F80E992E00E9485
:10173000120380E992E00E944F030E944F029B0136
:10174000AC0188EB882E8BE0982EA12CB12CC55CC7
:10175000DD4F2883CB53D240C45CDD4F3883CC535C
:10176000D240C35CDD4F4883CD53D240C25CDD4FD5
:101770005883CE53D2400E944F02C55CDD4F288172
:10178000CB53D240C45CDD4F3881CC53D240C35CD4
:10179000DD4F4881CD53D240C25CDD4F5881CE53DE
:1017A000D240DC01CB01821B930BA40BB50B883E0E
:1017B0009340A105B10548F0F1E08F1A9108A10806
:1017C000B10828513C4F4F4F5F4F81149104A10441
:1017D000B10409F0BCCF0E9445025CCDEBEEF1E014
:1017E0001382128248EE53E060E070E04483558338
:1017F0006683778388E091E09183808385EC90E035
:101800009587848784EC90E09787868780EC90E0CA
:10181000918B808B81EC90E0938B828B82EC90E0BB
:10182000958B848B86EC90E0978B868B118E128E35
:10183000138E148EE1EBF2E08AE791E091838083CE
:101840001282138214821582E7EBF2E09183808387
:101850001282138214821582EDEBF2E09183808371
:101860001282138214821582E8E8F2E09183808369
:101870001282138214821582E3ECF2E0918380835A
:101880001282138214821582E9ECF2E09183808344
:101890001282138214821582EFECF2E0918380832E
:1018A0001282138214821582EBEAF2E09183808324
:1018B00020EC228328EA238328E3248325E625835A
:1018C000E0E9F2E0138212824483558366837783D2
:1018D00024E531E03183208397878687108A118A37
:1018E000128A138A84E0808F089597FB072E16F4DE
:1018F000009407D077FD09D00E94890C07FC05D021
:101900003EF4909581959F4F0895709561957F4F16
:101910000895AA1BBB1B51E107C0AA1FBB1FA61736
:10192000B70710F0A61BB70B881F991F5A95A9F788
:1019300080959095BC01CD010895EE0FFF1F059095
:10194000F491E02D09945058BB27AA270E94BB0CA4
:101950000C94BC0D0E94AE0D38F00E94B50D20F025
:1019600039F49F3F19F426F40C94AB0D0EF4E09576
:10197000E7FB0C94A50DE92F0E94CD0D58F3BA1783
:10198000620773078407950720F079F4A6F50C9495
:10199000EF0D0EF4E0950B2EBA2FA02D0B01B9011F
:1019A00090010C01CA01A0011124FF27591B99F0D5
:1019B000593F50F4503E68F11A16F040A22F232FE1
:1019C000342F4427585FF3CF469537952795A79531
:1019D000F0405395C9F77EF41F16BA0B620B730BD8
:1019E000840BBAF09150A1F0FF0FBB1F661F771F49
:1019F000881FC2F70EC0BA0F621F731F841F48F4FE
:101A0000879577956795B795F7959E3F08F0B0CF86
:101A10009395880F08F09927EE0F9795879508956D
:101A20000E94810D08F481E008950E94D50D88F090
:101A30009F5798F0B92F9927B751B0F0E1F0660F92
:101A4000771F881F991F1AF0BA95C9F714C0B130D3
:101A500091F00E94EF0DB1E008950C94EF0D672F07
:101A6000782F8827B85F39F0B93FCCF38695779502
:101A70006795B395D9F73EF49095809570956195EB
:101A80007F4F8F4F9F4F0895E89409C097FB3EF416
:101A900090958095709561957F4F8F4F9F4F9923BB
:101AA000A9F0F92F96E9BB279395F6958795779539
:101AB0006795B795F111F8CFFAF4BB0F11F460FFF9
:101AC0001BC06F5F7F4F8F4F9F4F16C0882311F051
:101AD00096E911C0772321F09EE8872F762F05C065
:101AE000662371F096E8862F70E060E02AF09A9500
:101AF000660F771F881FDAF7880F9695879597F9F5
:101B00000895990F0008550FAA0BE0E8FEEF16168E
:101B10001706E807F907C0F012161306E407F507E1
:101B200098F0621B730B840B950B39F40A2661F055
:101B3000232B242B252B21F408950A2609F4A140F8
:101B4000A6958FEF811D811D089597F99F6780E805
:101B500070E060E008959FEF80EC089500240A94FF
:101B60001616170618060906089500240A94121678
:101B70001306140605060895092E0394000C11F4AB
:101B8000882352F0BB0F40F4BF2B11F460FF04C058
:101B90006F5F7F4F8F4F9F4F089557FD9058440FB1
:101BA000551F59F05F3F71F04795880F97FB991FBC
:101BB00061F09F3F79F08795089512161306140679
:101BC000551FF2CF4695F1DF08C016161706180606
:101BD000991FF1CF86957105610508940895E894E1
:101BE000BB2766277727CB0197F908950E94810DBF
:101BF00008F48FEF08950E940E0E0C94BC0D0E9405
:101C0000AE0D38F00E94B50D20F0952311F00C9424
:101C1000A50D0C94AB0D11240C94F00D0E94CD0D6C
:101C200070F3959FC1F3950F50E0551F629FF0012F
:101C3000729FBB27F00DB11D639FAA27F00DB11D48
:101C4000AA1F649F6627B00DA11D661F829F2227D1
:101C5000B00DA11D621F739FB00DA11D621F839F58
:101C6000A00D611D221F749F3327A00D611D231F2E
:101C7000849F600D211D822F762F6A2F11249F577C
:101C800050409AF0F1F088234AF0EE0FFF1FBB1F7F
:101C9000661F771F881F91505040A9F79E3F51053E
:101CA00080F00C94A50D0C94F00D5F3FE4F3983E8A
:101CB000D4F3869577956795B795F795E7959F5FE8
:101CC000C1F7FE2B880F911D9695879597F908957A
:101CD00019F416F40C94AB0D0C94B30E0E94D50DB0
:101CE000B8F39923C9F3B6F39F57550B87FF0E94AA
:101CF000C10E0024A0E640EA9001805856959795C1
:101D000028F4805C660F771F881F20F0261737079E
:101D1000480730F4621B730B840B202931294A2BAE
:101D2000A69517940794202531254A2758F7660F62
:101D3000771F881F20F026173707480730F4620BFB
:101D4000730B840B200D311D411DA09581F7B90146
:101D5000842F9158880F9695879508950E94810D3C
:101D6000880B990B08959F3F31F0915020F487958F
:101D700077956795B795880F911D9695879597F9F3
:101D8000089591505040660F771F881FD2F708952D
:101D900081E090E0F8940C94930FFB01DC0101903A
:101DA0000D920020E1F708958F929F92AF92BF921B
:101DB000CF92DF92EF92FF92CF93DF93EC01688195
:101DC00079818A819B81611571058105910521F4D5
:101DD00064E279ED8BE597E02DE133EF41E050E0EF
:101DE0000E94300F49015A019B01AC01A7EAB1E4FE
:101DF0000E944F0F6B017C01ACEEB4EFA501940182
:101E00000E945D0FDC01CB018C0D9D1DAE1DBF1D21
:101E1000B7FF03C00197A109B04888839983AA83BB
:101E2000BB83BC01CD019F77DF91CF91FF90EF90F5
:101E3000DF90CF90BF90AF909F908F9008950E94B9
:101E4000D40E089580E091E00E94D40E089560932E
:101E500000017093010180930201909303010895A2
:101E6000052E97FB1EF400940E94470F57FD07D0E4
:101E70000E94620F07FC03D04EF40C94470F50955C
:101E80004095309521953F4F4F4F5F4F0895909566
:101E90008095709561957F4F8F4F9F4F08950E9459
:101EA000840FA59F900DB49F900DA49F800D911D50
:101EB00011240895B7FF0C944F0F0E944F0F821BFF
:101EC000930B0895A1E21A2EAA1BBB1BFD010DC0A6
:101ED000AA1FBB1FEE1FFF1FA217B307E407F507DA
:101EE00020F0A21BB30BE40BF50B661F771F881FB6
:101EF000991F1A9469F760957095809590959B014C
:101F0000AC01BD01CF010895A29FB001B39FC001F4
:101F1000A39F700D811D1124911DB29F700D811D15
:0A1F20001124911D0895F894FFCFDD
:101F2A000100000000000000DC015801A501830146
:101F3A009701230200000000AE03AE03AE03AE0316
:101F4A00AE03AE03AE03AE03AE03AE03AE03AE03FF
:101F5A00AE03AE03AE03AE0300000000AE035801A9
:101F6A00AE03AE03AE03AE0300000000AE03580199
:101F7A0000000000390312037E03BB0280027602CE
:101F8A00850333015A036F044F03D8028302A70360
:101F9A009703930374020000000015040000000078
:101FAA00AE030D0A003F292C200028756E64656671
:101FBA00696E6564292C200068656C6C6F2D6672E9
:101FCA006F6D2D776F726B6572003F290009097575
:101FDA006E646566696E656400636865636B5F69F4
:101FEA00735F7072696D650069735F6E6F745F709D
:101FFA0072696D65006E616E00696E66006F766665
:02200A000000D4
:00000001FF
