:100000000C940B010C9433010C9433010C943301C8
:100010000C9433010C9433010C9433010C94330190
:100020000C9433010C9433010C9433010C94330180
:100030000C9433010C9433010C9433010C94330170
:100040000C94A9060C9433010C9452060C942C06C3
:100050000C9433010C9433010C9433010C94330150
:100060000C9433010C943301207D00292C200028AE
:10007000666C6F61742000292C200028696E742042
:10008000003A2000602C2073697A653D002C2060C6
:1000900000292C206E756D3D002C20666C28007B9D
:1000A0002072743A20005B494E505D20476F7420E7
:1000B0006261636B20726573706F6E73653A2000C6
:1000C0005A73757445746865726E65745544503A18
:1000D0003A626567696E5061636B657428636F6E21
:1000E00073742063686172202A686F73742C2075A2
:1000F000696E7431365F7420706F7274293B2069A9
:1001000073206E6F7420737570706F7274656421E4
:1001100020536F7272792100290028666C6F617418
:1001200020002900090928696E74200009506163C4
:100130006B6574207475706C652073697A653A20FC
:1001400000095061636B6574207475706C65206E76
:10015000616D653A2000095061636B6574206E75AE
:100160006D6265723A2000095061636B65742066A8
:100170006C6167733A2000095061636B657420728B
:1001800065717565737420747970653A20005B4FF2
:1001900055545D2053656E74207061636B657420E7
:1001A000746F207365727665723A20006973206EF1
:1001B0006F74207072696D65006973207072696D6B
:1001C00065003A2000476F7420726573756C747314
:1001D0003A200053656E64696E67207475706C65B3
:1001E000732E204E6F7720636865636B696E67209E
:1001F0006E756D6265723A20002C20696E646578B8
:100200003D005641524941424C45533A20636F7577
:100210006E743D00630C11241FBECFEFD8E0DEBF2B
:10022000CDBF22E0A2EEB1E001C01D92A43EB20714
:10023000E1F711E0A0E0B1E0EEE0FFE102C00590DF
:100240000D92A23EB107D9F711E0CBE0D1E004C096
:100250002197FE010E94EA0CCA30D107C9F70E941B
:1002600056080C94850F0C9400000895EF92FF92AD
:100270000F931F93CF93DF938C017B01C0E0D0E0FD
:10028000F701EC0FFD1F6491662361F0D801ED9139
:10029000FC910190F081E02DC8010995892B11F0A6
:1002A0002196EECFCE01DF91CF911F910F91FF905C
:1002B000EF900895CF92DF92EF92FF920F931F93EA
:1002C000CF93DF936C017A018B01C0E0D0E0CE15B3
:1002D000DF0589F0D8016D918D01D601ED91FC917A
:1002E0000190F081E02DC6010995892B11F47E0162
:1002F00002C02196ECCFC701DF91CF911F910F91E2
:10030000FF90EF90DF90CF900895FC01918D828D4A
:10031000981761F0828DDF01A80FB11D5D968C9159
:10032000928D9F5F9F73928F90E008958FEF9FEF64
:100330000895FC01918D828D981731F0828DE80F20
:10034000F11D858D90E008958FEF9FEF0895FC01DA
:10035000918D228D892F90E0805C9F4F821B9109A7
:100360008F73992708958AEF91E00E94A70121E0F9
:10037000892B09F420E0822F0895FC01848DDF0190
:10038000A80FB11DA35ABF4F2C91848D90E0019608
:100390008F739927848FA689B7892C93A089B189F7
:1003A0008C9180648C93938D848D981306C0028801
:1003B000F389E02D80818F7D80830895EF92FF92F5
:1003C0000F931F93CF93DF93EC0181E0888F9B8D78
:1003D0008C8D981305C0E889F989808185FD24C03A
:1003E000F62E0B8D10E00F5F1F4F0F731127E02EBD
:1003F0008C8DE8120CC00FB607FCFACFE889F9899A
:10040000808185FFF5CFCE010E94BD01F1CF8B8D9C
:10041000FE01E80FF11DE35AFF4FF0820B8FEA89CE
:10042000FB898081806207C0EE89FF896083E8894B
:10043000F98980818064808381E090E0DF91CF91B1
:100440001F910F91FF90EF900895CF93DF93EC01F0
:10045000888D8823C9F0EA89FB89808185FD05C0E4
:10046000A889B9898C9186FD0FC00FB607FCF5CF1E
:10047000808185FFF2CFA889B9898C9185FFEDCF66
:10048000CE010E94BD01E7CFDF91CF91089580E0BA
:1004900090E0892B29F00E94B30181110C94000097
:1004A000089581E0089587E08CBF95EE9BBF1ABE4A
:1004B0008CBF86EE8BBF1ABE089580E090E0089551
:1004C00097E09CBF87EE8BBF8AB79CBF28EE2BBFFF
:1004D0002AB730E0382B9CBF85EE8BBFEAB79CBFB4
:1004E00086EE8BBF9AB7892F90E09E2B821B930BD1
:1004F0008417950708F0CA01FB01A9014751584F1D
:10050000680F791FE617F70739F05CBF4BBFAAB732
:10051000A1934F5F5F4FF6CF280F391F47E04CBFC5
:1005200057EE5BBF3ABF4CBF38EE3BBF2ABF0895C2
:10053000CF93DF931F92CDB7DEB7DC01ED91FC9135
:10054000008CF18DE02D41E050E0BE016F5F7F4FE8
:100550000995181619061CF4898190E002C08FEFE6
:100560009FEF0F90DF91CF910895FC0187E08CBF42
:1005700095EE9BBF3AB78CBF96EE9BBF9AB78CBFE8
:1005800027EE2BBF6AB78CBF88EE8BBF2AB71CBE85
:1005900080E18BBF8AB71CBE4FE04BBF4AB71CBE81
:1005A0005EE05BBF5AB71CBE7DE07BBF7AB7708B45
:1005B000518B428B838B1CBE81E18BBF8AB71CBEE3
:1005C00042E14BBF4AB750E0582B558B448B892FE3
:1005D00090E0932B30E0362B821B930B08951CBECA
:1005E00083E18BBF2AB71CBE84E18BBF8AB790E042
:1005F000922BFB019C012B5E3F4F640F751FE6178A
:10060000F70739F0A1913CBF2BBFAABF2F5F3F4F27
:10061000F6CF480F591F1CBE83E18BBF5ABF1CBECB
:1006200084E18BBF4ABF80E090E00895CF93DF93D1
:100630001F92CDB7DEB76983DC01ED91FC9102809A
:10064000F381E02D41E050E0BE016F5F7F4F0995DF
:100650000F90DF91CF9108951CBE1BBE8FEF8ABF14
:100660001CBE1BBE82E08ABF80E090E00895FB01C3
:1006700032812381948185811CBE1BBE61E06ABFEB
:100680001CBE6DE06BBF3ABF1CBE3EE03BBF2ABF45
:100690001CBE2FE02BBF9ABF1CBE90E19BBF8ABF40
:1006A0001CBE81E18BBF5ABF1CBE82E18BBF4ABF1B
:1006B00081E090E00895DC01ED91FC910688F789D6
:1006C000E02D09941CBE8BE08BBF7ABF1CBE8CE072
:1006D0008BBF6ABF1CBE1BBE83E08ABF81E008954A
:1006E000FC018489958908952AE731E0FC01318372
:1006F0002083FB014089518962897389FC0142830F
:100700005383648375830895DC01ED91FC91008C23
:10071000F18DE02D09940E94BA0EDC01ED91FC915F
:100720000190F081E02D09946115710579F0FB01CC
:1007300001900020E9F73197AF01461B570BDC0110
:10074000ED91FC910280F381E02D099480E090E02E
:1007500008954F925F926F927F92EF92FF920F9364
:100760001F93CF93DF93CDB7DEB7A1970FB6F89461
:10077000DEBF0FBECDBF7C01FA01CB0119A2223032
:1007800008F42AE08E010F5D1F4F422E512C612C80
:10079000712CBF01A30192010E94540FF901CA01FB
:1007A000015011096A3014F4605D01C0695CD80120
:1007B0006C93232B242B252B61F7B801C7010E94D2
:1007C0009403A1960FB6F894DEBF0FBECDBFDF91A4
:1007D000CF911F910F91FF90EF907F906F905F905E
:1007E0004F9008958F929F92AF92BF92CF92DF92D7
:1007F000EF92FF920F931F93CF93DF937C018B01B6
:100800006C0182E0C80ED11C4701E5E08E0E911C00
:10081000C0E0D0E0F60141916F0150E060E070E08F
:100820002AE0C8010E94A9035C016EE2C8010E948F
:100830008D038A0D9B1DC80FD91FC814D90451F709
:10084000F701458150E060E070E02AE0C8010E94B5
:10085000A9038C0F9D1FDF91CF911F910F91FF90E6
:10086000EF90DF90CF90BF90AF909F908F900895C2
:100870000F931F93CF93DF93EC010E9436018C01FD
:1008800062E871E0CE010E949403800F911FDF9116
:10089000CF911F910F91089560EC70E08AEF91E085
:1008A0000E943804989580E090E00895AF92BF923E
:1008B000CF92DF92EF92FF920F931F93CF93DF932C
:1008C000CDB7DEB76FE970E08AEF91E00E943601A4
:1008D0004D85477050E060E070E02AE08AEF91E0DB
:1008E0000E94A90369E970E08AEF91E00E94360155
:1008F0004D8546954695469550E060E070E02AE0CB
:100900008AEF91E00E94A90361E970E08AEF91E02B
:100910000E9436018E859F85A889AC016A2F70E000
:100920002AE08AEF91E00E94A9036DE870E08AEF67
:1009300091E00E943601BE016F5E7F4F8AEF91E029
:100940000E94940364E870E08AEF91E00E9436010F
:1009500049A95AA96BA97CA92AE08AEF91E00E94D3
:10096000A90361E870E08AEF91E00E9436015E0120
:1009700089E3A80EB11CC12CD12C760189A99AA9B2
:10098000ABA9BCA9C816D906EA06FB0608F053C0F5
:1009900086010B5F1F4F83E0000F111F8A95E1F75F
:1009A000EDE0F0E0EC0FFD1F0E0F1F1FF80180813E
:1009B0008E708230B9F46BE770E08AEF91E00E94AC
:1009C0003601F801808180FF0AC0F50160817181E4
:1009D000828193810E942B0767E770E018C065E869
:1009E00071E01CC08430C1F46FE670E08AEF91E0E2
:1009F0000E943601F801808180FFF1CFF50160810E
:100A00007181828193810E945D076BE670E08AEFBD
:100A100091E00E94360106C06AE871E08AEF91E039
:100A20000E949403FFEFCF1ADF0AEF0AFF0A88E063
:100A3000A80EB11CA3CF68E670E08AEF91E00E9497
:100A40003804DF91CF911F910F91FF90EF90DF90CD
:100A5000CF90BF90AF9008950F931F93CF93DF93E4
:100A6000CDB7DEB7CC51D1400FB6F894DEBF0FBE84
:100A7000CDBF8C0169E578E08FE992E00E946203C6
:100A80008AE791E09A8389838091BC029091BD02AC
:100A9000A091BE02B091BF028B839C83AD83BE83C5
:100AA00049E558E0BE016F5F7F4F8FE992E00E94F9
:100AB000370383E0CF56DF4F8883C159D0400E946F
:100AC000140F20E030E040E051E00E94220FCE56AB
:100AD000DF4F688379838A83C259D04084E4F80168
:100AE000A1E9B0E0AC0FBD1F149601900D928A955C
:100AF000E1F748E450E0BE016F567F4F8FE992E086
:100B00000E94EF028FE992E00E942C0369E578E0F1
:100B10008FE992E00E9462038FE992E00E94B502A1
:100B2000892BD1F348E450E0BE01675B7F4F8FE92A
:100B300092E00E94600266EA70E08AEF91E00E9413
:100B400036018DB79EB7885491090FB6F8949EBFB1
:100B50000FBE8DBFADB7BEB7119688E4FE01E75B4F
:100B6000FF4F01900D928A95E1F70E94560484E4AC
:100B7000E9E4F0E0EC0FFD1F3496D80101900D92EE
:100B80008A95E1F70FB6F894DEBF0FBECDBF69E5D9
:100B900078E08FE992E00E9462038AE791E09A830D
:100BA00089838091BC029091BD02A091BE02B09158
:100BB000BF028B839C83AD83BE8349E558E0BE01B1
:100BC0006F5F7F4F8FE992E00E943703B801CE013B
:100BD00087529F4F0E94BF0EC750DF4F1882198265
:100BE0001A821B82C95FD0408BE089830E94140F58
:100BF00020E030E040E051E00E94220F6A837B83D6
:100C00008C8384E4FE01E752FF4FDE0115960190CC
:100C10000D928A95E1F748E450E0BE016F5F7F4F87
:100C20008FE992E00E94EF028FE992E00E942C038C
:100C30002A968FAD2A97881F8827881F91E08927D9
:100C4000C45EDE4F0FB6F894DEBF0FBECDBFDF919E
:100C5000CF911F910F9108951F920F920FB60F928F
:100C600011242F933F934F935F936F937F938F93B1
:100C70009F93AF93BF93EF93FF938AEF91E00E940E
:100C8000BD01FF91EF91BF91AF919F918F917F91A6
:100C90006F915F914F913F912F910F900FBE0F90E9
:100CA0001F9018951F920F920FB60F9211242F9339
:100CB0008F939F93EF93FF93E0910A02F0910B02C1
:100CC0008081E0911002F091110282FD12C09081AA
:100CD000809113028F5F8F7320911402821751F05D
:100CE000E0911302F0E0E650FE4F958F80931302DF
:100CF00001C08081FF91EF919F918F912F910F9073
:100D00000FBE0F901F9018953FB7F8948091E701A0
:100D10009091E801A091E901B091EA0126B5A89B64
:100D200005C02F3F19F00196A11DB11D3FBFBA2F7D
:100D3000A92F982F8827820F911DA11DB11DBC01DD
:100D4000CD0142E0660F771F881F991F4A95D1F7A2
:100D500008951F920F920FB60F9211242F933F9375
:100D60008F939F93AF93BF938091E3019091E401A0
:100D7000A091E501B091E6013091E20123E0230F5B
:100D80002D3720F40196A11DB11D05C026E8230FC3
:100D90000296A11DB11D2093E2018093E30190937F
:100DA000E401A093E501B093E6018091E701909101
:100DB000E801A091E901B091EA010196A11DB11DE0
:100DC0008093E7019093E801A093E901B093EA01D1
:100DD000BF91AF919F918F913F912F910F900FBE37
:100DE0000F901F9018958F929F92AF92BF92CF92C3
:100DF000DF92EF92FF920E9484064B015C0188EE25
:100E0000C82E83E0D82EE12CF12C0E948406DC0150
:100E1000CB0188199909AA09BB09883E9340A1050D
:100E2000B10558F021E0C21AD108E108F10888EEB6
:100E3000880E83E0981EA11CB11CC114D104E104EA
:100E4000F10419F7FF90EF90DF90CF90BF90AF9033
:100E50009F908F900895CF92DF92EF92FF92CF9361
:100E6000DF93AB01BC0177FF1DC06A017B016DE21E
:100E70008AEF91E00E948D03EC0144275527BA01C7
:100E80004C195D096E097F092AE08AEF91E00E9402
:100E9000A9038C0F9D1FDF91CF91FF90EF90DF9002
:100EA000CF9008952AE08AEF91E0DF91CF91FF90F3
:100EB000EF90DF90CF900C94A9038F929F92AF9206
:100EC000BF92CF92DF92EF92FF92CF93DF936B01AD
:100ED0007C019B01AC010E94B50E882319F065EDE1
:100EE00071E027C046015701E894B7F82FEF3FEFB4
:100EF0004FE75FE7C501B4010E94B50E81110DC037
:100F00002FEF3FEF4FE75FE7C501B4010E945D0D92
:100F100018161CF469ED71E00CC02FEF3FEF4FE79E
:100F20005FE4C701B6010E94430E181684F46DED0C
:100F300071E08AEF91E0DF91CF91FF90EF90DF9029
:100F4000CF90BF90AF909F908F900C9494032FEF11
:100F50003FEF4FE75FECC701B6010E945D0D87FDD3
:100F6000E6CF20E030E0A901C701B6010E945D0D87
:100F700087FF0BC06DE28AEF91E00E948D03EC01C8
:100F8000F7FAF094F7F8F09402C0C0E0D0E02AE05D
:100F900037ED43EA5BE3C701B6010E94F10C4B0158
:100FA0005C010E94620D6B017C010E94910D9B010E
:100FB000AC01C501B4010E94F00C4B015C012AE0B8
:100FC000B701A6018AEF91E00E94A903C80FD91FBB
:100FD0006EE28AEF91E00E948D03C80FD91F20E0D6
:100FE00030E040E251E4C501B4010E94480E4B01DB
:100FF0005C010E94620D6B01E12CF12C2AE0B7012B
:10100000A6018AEF91E00E94A903C80FD91FC7016A
:10101000B6010E94910D9B01AC01C501B4010E9473
:10102000F00C20E030E040E251E40E94480E0E94C3
:10103000620DAB0160E070E02AE08AEF91E00E946F
:10104000A9038C0F9D1FDF91CF91FF90EF90DF9050
:10105000CF90BF90AF909F908F900895CF93DF93E4
:10106000BC018AEF91E00E949403EC0162E871E018
:101070008AEF91E00E9494038C0F9D1FDF91CF9126
:101080000895CF93DF93AB01BC012AE08AEF91E092
:101090000E94A903EC0162E871E08AEF91E00E94EE
:1010A00094038C0F9D1FDF91CF910895CF93DF9311
:1010B000CDB7DEB7CE5ED1400FB6F894DEBF0FBE1F
:1010C000CDBF789484B5826084BD84B5816084BDD1
:1010D00085B5826085BD85B5816085BD80916E00D6
:1010E000816080936E001092810080918100826007
:1010F0008093810080918100816080938100809144
:1011000080008160809380008091B1008460809332
:10111000B1008091B00081608093B00080917A002E
:10112000846080937A0080917A00826080937A0054
:1011300080917A00816080937A0080917A00806843
:1011400080937A001092C10069E578E080E090E039
:101150000E94190F82E090E09093F9018093F801CA
:101160009093F7018093F6011092EB011092EC013D
:1011700081E08093F501E0910A02F0910B0282E098
:101180008083E0910602F09107021082E09108024C
:10119000F091090280E1808310921202E0910E0228
:1011A000F0910F0286E08083E0910C02F0910D0235
:1011B000808180618083E0910C02F0910D0280813A
:1011C00088608083E0910C02F0910D02808180683C
:1011D0008083E0910C02F0910D0280818F7D8083ED
:1011E00088E08093990280939A0280939B02809377
:1011F0009C0269E578E08FE992E00E9462038AE749
:1012000091E09A8389838091BC029091BD02A09164
:10121000BE02B091BF028B839C83AD83BE8349E540
:1012200058E0BE016F5F7F4F8FE992E00E94370365
:1012300068E971E0CE018F569F4F0E94BF0ECF54D8
:10124000DF4F188219821A821B82C15BD04080E472
:101250002A968FAF2A970E94140F20E030E040E0DA
:1012600051E00E94220F2D966DAF7EAF8FAF2D976C
:1012700084E4FE01EF56FF4FA9E4B0E0AC0FBD1FC0
:10128000149601900D928A95E1F748E450E0BE0172
:10129000675B7F4F8FE992E00E94EF028FE992E057
:1012A0000E942C0369E578E08FE992E00E946203D6
:1012B0008FE992E00E94B502892BD1F348E450E017
:1012C000BE016F5F7F4F8FE992E00E94600288E469
:1012D000FE013196DE01A752BF4F01900D928A9513
:1012E000E1F767E771E08AEF91E00E943601C752AB
:1012F000DF4F6881C95DD040677070E080E090E0AA
:101300000E94410867E671E08AEF91E00E94360191
:10131000C752DF4F6881C95DD04066956695669576
:1013200070E080E090E00E94410866E571E08AEF9D
:1013300091E00E943601C652DF4F88819981AA81CF
:10134000CA5DD040BC018A2F90E00E94410861E450
:1013500071E08AEF91E00E94360189ED90E08C0FF8
:101360009D1F04960E942E086CE271E08AEF91E0C6
:101370000E943601C350DF4F688179818A819B8149
:10138000CD5FD0400E94410859EDA52EB12CAC0E86
:10139000BD1E8CE2A80EB11CC12CD12C7601C3500D
:1013A000DF4F88819981AA81BB81CD5FD040C8166B
:1013B000D906EA06FB0608F051C086010B5F1F4FF5
:1013C00043E0000F111F4A95E1F7E9EDF0E0EC0F63
:1013D000FD1F0E0F1F1FF80180818E708230B9F43F
:1013E00064E271E08AEF91E00E943601F8018081A9
:1013F00080FF0AC0F50160817181828193810E9422
:101400002B0762E271E018C08AEA91E01CC08430C8
:10141000C1F46AE171E08AEF91E00E943601F801BF
:10142000808180FFF1CFF50160817181828193819C
:101430000E945D0768E171E08AEF91E00E94380444
:1014400004C08DEA91E00E942E08FFEFCF1ADF0A58
:10145000EF0AFF0A88E0A80EB11CA1CF69E578E089
:101460008FE992E00E9462038AE791E0CF5DDE4F50
:1014700099838883C152D1408091BC029091BD0272
:10148000A091BE02B091BF02CD5DDE4F88839983EB
:10149000AA83BB83C352D14049E558E0BE016F5DCA
:1014A0007E4F8FE992E00E9437032A968FAD2A97EC
:1014B00088602A968FAF2A9748E450E0BE01675BA8
:1014C0007F4F8FE992E00E94EF028FE992E00E9445
:1014D0002C03C12CD12C7601C39494E4392E412CD9
:1014E000512C32017394E1E9F0E0EC0FFD1F3496CA
:1014F000C351DE4FF983E883CD5ED14038E4232E1B
:1015000062E072E08AEF91E00E9436016091F8019A
:101510007091F901072E000C880B990B0E942B0784
:1015200069EF71E08AEF91E00E9436016091F60167
:101530007091F701072E000C880B990B0E942B0766
:1015400062E871E08AEF91E00E9494038091F501D6
:10155000882309F477C10091F8011091F9010A304C
:1015600011050CF020C169EB71E0CE0187559E4F4B
:101570000E94BF0EC753DE4FC882D982EA82FB8227
:10158000C95CD140C353DE4F8881CD5CD140807FA0
:101590008360C353DE4F8883CD5CD1404801110F77
:1015A000AA08BB08CF52DE4F88829982AA82BB82EA
:1015B000C15DD14063ED71E08AEF91E00E94360198
:1015C000C501B4010E942B0762E871E08AEF91E047
:1015D0000E949403FE01E755FE4FDE01AB59BE4F5A
:1015E000832D01900D928A95E1F769E578E08FE906
:1015F00092E00E9462038AE791E09A838983809156
:10160000BC029091BD02A091BE02B091BF028B833B
:101610009C83AD83BE8349E558E0BE016F5F7F4F79
:101620008FE992E00E94370381E0CF56DF4F888335
:10163000C159D0400E94140FA30192010E94220FB1
:10164000CE56DF4F688379838A83C259D040FE012A
:10165000EB59FE4FC351DE4FA881B981CD5ED14019
:10166000832D01900D928A95E1F748E450E0BE0188
:101670006F567F4F8FE992E00E94EF026EE871E0B3
:101680008AEF91E00E943601EDB7FEB7E854F10908
:101690000FB6F894FEBF0FBEEDBFADB7BEB7119643
:1016A000FE01EF56FF4F822D01900D928A95E1F7D2
:1016B0000E9456040FB6F894DEBF0FBECDBF8FE96F
:1016C00092E00E942C0369E578E08FE992E00E94A5
:1016D00062038FE992E00E94B502892BD1F348E4BE
:1016E00050E0BE01675B7F4F8FE992E00E9460028D
:1016F00069E578E08FE992E00E946203EAE7F1E0B1
:10170000FA83E9838091BC029091BD02A091BE0250
:10171000B091BF028B839C83AD83BE8349E558E0C3
:10172000BE016F5F7F4F8FE992E00E943703BE01D9
:101730006B597E4FCE018F5D9E4F0E94BF0ECF5BD7
:10174000DE4F188219821A821B82C154D14089E06F
:1017500089830E94140FA30192010E94220F6A83C1
:101760007B838C83FE01EF5DFE4FDE011596832D9A
:1017700001900D928A95E1F748E450E0BE016F5F59
:101780007F4F8FE992E00E94EF028FE992E00E9482
:101790002C038091F8019091F90101969093F90141
:1017A0008093F8014FC06FEB71E0CE01875B9F4FD4
:1017B0000E94BF0EAD96CCAEDDAEEEAEFFAEAD97E5
:1017C000AE968FADAE97807F8260AE968FAFAE97AC
:1017D00068EC71E0CE0101960E94BF0EC9A2DAA2A8
:1017E000EBA2FCA28DA1807F82608DA3CE01875BDE
:1017F0009F4F0E942C05882389F0E396EEADFFAD44
:10180000E397E551FE4F81E080838091F60190914E
:10181000F70101969093F7018093F601CE010196AE
:101820000E942C05882371F0E9A5FAA5E551FE4F29
:1018300010828091F6019091F70101969093F70143
:101840008093F6018091F6019091F7010A97B4F127
:101850008091F501882391F165EC71E08AEF91E0C8
:101860000E9438040BEE11E0812C912C5401C5012B
:10187000B4010E942B0762EC71E08AEF91E00E94B4
:101880003601F80181918F01882319F069EB71E02D
:1018900002C06CEA71E08AEF91E00E9438040E9475
:1018A000F306FFEF8F1A9F0AAF0ABF0A8AE0881675
:1018B0009104A104B104D9F61092F5010E94F30637
:1018C0000E9447021DCEEAEFF1E01382128248EE39
:1018D00053E060E070E0448355836683778388E05B
:1018E00091E09183808385EC90E09587848784ECF8
:1018F00090E09787868780EC90E0918B808B81ECDD
:1019000090E0938B828B82EC90E0958B848B86ECBD
:1019100090E0978B868B118E128E138E148EE0ECD6
:10192000F2E08AE791E0918380831282138214822D
:101930001582E6ECF2E09183808312821382148296
:101940001582ECECF2E09183808312821382148280
:101950001582E7E9F2E09183808312821382148278
:101960001582E2EDF2E09183808312821382148269
:101970001582E8EDF2E09183808312821382148253
:101980001582EEEDF2E0918380831282138214823D
:101990001582EAEBF2E09183808320EC228328EA2F
:1019A000238328E3248325E62583EFE9F2E01382ED
:1019B0001282448355836683778324E531E0318343
:1019C000208397878687108A118A128A138A84E077
:1019D000808F0895EE0FFF1F0590F491E02D09947C
:1019E0005058BB27AA270E94080D0C94090E0E948C
:1019F000FB0D38F00E94020E20F039F49F3F19F4DD
:101A000026F40C94F80D0EF4E095E7FB0C94F20D1F
:101A1000E92F0E941A0E58F3BA176207730784075A
:101A2000950720F079F4A6F50C943C0E0EF4E095A1
:101A30000B2EBA2FA02D0B01B90190010C01CA0188
:101A4000A0011124FF27591B99F0593F50F4503E33
:101A500068F11A16F040A22F232F342F4427585F25
:101A6000F3CF469537952795A795F0405395C9F73D
:101A70007EF41F16BA0B620B730B840BBAF09150F5
:101A8000A1F0FF0FBB1F661F771F881FC2F70EC094
:101A9000BA0F621F731F841F48F487957795679567
:101AA000B795F7959E3F08F0B0CF9395880F08F053
:101AB0009927EE0F9795879508950E94CE0D08F40B
:101AC00081E008950E94220E88F09F5798F0B92F68
:101AD0009927B751B0F0E1F0660F771F881F991F63
:101AE0001AF0BA95C9F714C0B13091F00E943C0EBB
:101AF000B1E008950C943C0E672F782F8827B85FCB
:101B000039F0B93FCCF3869577956795B395D9F7BA
:101B10003EF490958095709561957F4F8F4F9F4FC4
:101B20000895E89409C097FB3EF4909580957095D0
:101B300061957F4F8F4F9F4F9923A9F0F92F96E919
:101B4000BB279395F695879577956795B795F1118E
:101B5000F8CFFAF4BB0F11F460FF1BC06F5F7F4F2B
:101B60008F4F9F4F16C0882311F096E911C077233D
:101B700021F09EE8872F762F05C0662371F096E846
:101B8000862F70E060E02AF09A95660F771F881F15
:101B9000DAF7880F9695879597F90895990F0008B9
:101BA000550FAA0BE0E8FEEF16161706E807F9072F
:101BB000C0F012161306E407F50798F0621B730BCA
:101BC000840B950B39F40A2661F0232B242B252B4B
:101BD00021F408950A2609F4A140A6958FEF811DEE
:101BE000811D089597F99F6780E870E060E008958F
:101BF0009FEF80EC089500240A9416161706180625
:101C00000906089500240A94121613061406050600
:101C10000895092E0394000C11F4882352F0BB0F91
:101C200040F4BF2B11F460FF04C06F5F7F4F8F4FF4
:101C30009F4F089557FD9058440F551F59F05F3F2F
:101C400071F04795880F97FB991F61F09F3F79F0DE
:101C500087950895121613061406551FF2CF469560
:101C6000F1DF08C0161617061806991FF1CF8695E2
:101C70007105610508940895E894BB2766277727C6
:101C8000CB0197F908950E94CE0D08F48FEF0895C7
:101C90000E945B0E0C94090E0E94FB0D38F00E940E
:101CA000020E20F0952311F00C94F20D0C94F80D17
:101CB00011240C943D0E0E941A0E70F3959FC1F3EF
:101CC000950F50E0551F629FF001729FBB27F00DEA
:101CD000B11D639FAA27F00DB11DAA1F649F66273F
:101CE000B00DA11D661F829F2227B00DA11D621F8E
:101CF000739FB00DA11D621F839FA00D611D221F48
:101D0000749F3327A00D611D231F849F600D211D2B
:101D1000822F762F6A2F11249F5750409AF0F1F0AE
:101D200088234AF0EE0FFF1FBB1F661F771F881F17
:101D300091505040A9F79E3F510580F00C94F20D50
:101D40000C943D0E5F3FE4F3983ED4F3869577956F
:101D50006795B795F795E7959F5FC1F7FE2B880FBD
:101D6000911D9695879597F908950E94CE0D880B41
:101D7000990B089581E090E0F8940C94850FFB0195
:101D8000DC0101900D920020E1F708958F929F925F
:101D9000AF92BF92CF92DF92EF92FF92CF93DF93F9
:101DA000EC01688179818A819B81611571058105CA
:101DB000910521F464E279ED8BE597E02DE133EFB5
:101DC00041E050E00E94220F49015A019B01AC0101
:101DD000A7EAB1E40E94410F6B017C01ACEEB4EFC5
:101DE000A50194010E944F0FDC01CB018C0D9D1DBC
:101DF000AE1DBF1DB7FF03C00197A109B04888837E
:101E00009983AA83BB83BC01CD019F77DF91CF91DA
:101E1000FF90EF90DF90CF90BF90AF909F908F900A
:101E200008950E94C60E089580E091E00E94C60EBB
:101E300008956093000170930101809302019093D3
:101E400003010895052E97FB1EF400940E94390F9C
:101E500057FD07D00E94540F07FC03D04EF40C949A
:101E6000390F50954095309521953F4F4F4F5F4F1B
:101E7000089590958095709561957F4F8F4F9F4FF6
:101E800008950E94760FA59F900DB49F900DA49F7A
:101E9000800D911D11240895B7FF0C94410F0E94ED
:101EA000410F821B930B0895A1E21A2EAA1BBB1BA4
:101EB000FD010DC0AA1FBB1FEE1FFF1FA217B30716
:101EC000E407F50720F0A21BB30BE40BF50B661F2C
:101ED000771F881F991F1A9469F7609570958095F0
:101EE00090959B01AC01BD01CF010895A29FB00167
:101EF000B39FC001A39F700D811D1124911DB29F3E
:0E1F0000700D811D1124911D0895F894FFCFDE
:101F0E000100000000000000DE015A01A70185015A
:101F1E0099012502000000008B038B038B038B03BA
:101F2E008B038B038B038B038B038B038B038B0333
:101F3E008B038B038B038B03000000008B035A0172
:101F4E008B038B038B038B03000000008B035A0162
:101F5E00000000001603EF025B0398025D025302BD
:101F6E006203350137034C042C03B502600284036F
:101F7E0074037003510200000000F2030000000021
:101F8E008B030D0A003F292C200028756E646566B0
:101F9E00696E6564292C200068656C6C6F2D667205
:101FAE006F6D2D6D6173746572003F29000909759F
:101FBE006E646566696E656400636865636B5F6910
:101FCE00735F7072696D650069735F6E6F745F70B9
:101FDE0072696D65006E616E00696E66006F766681
:021FEE000000F1
:00000001FF
